S01B00004B4C32355A2D50333131352D4F4E4553484F542E737265631D
S113000000300020A529000007110000872400000B
S113001000000000000000000000000000000000DC
S11300200000000000000000000000006B2A000037
S11300300000000000000000772A0000392C0000B6
S1130040C12B0000C92B0000D12B0000D92B0000CC
S1130050192C0000192C0000192C0000192C000088
S1130060E12B0000E92B0000F12B0000F92B00002C
S1130070012C0000092C0000112C0000192C000098
S1130080192C0000192C0000192C0000192C000058
S1130090192C0000192C0000192C0000192C000048
S11300A0192C0000192C0000192C0000192C000038
S11300B0192C0000192C0000ED290000F92900007A
S1130400FFFFFFFFFFFFFFFFFFFFFFFFFEFFFFFFF9
S11304100121C006C00E81409E4801607047010C56
S11304209D4A89180A680123834013430B6070476F
S113043080B540B2FFF7ECFF01BD00B54A0403D517
S113044082790B0A13438371C17000BD10B5002477
S113045000E0641C022C05D29049042262438958AE
S11304608142F6D1022C06D3A622AF49AF4800F050
S113047043FBC046C046200010BDF8B505000C0083
S113048016000020684671790170A94F20003100E0
S1130490182200F051FB7069A061207B002808D06D
S11304A0022020777079012805D100206946087060
S11304B001E001202077E878000603D47F1EBFB254
S11304C0002FF8D1BFB2002F02D18A20C00013E060
S11304D0A4492800FFF7B1FF2078800706D56846B5
S11304E002782179280000F0BBF905E0684602781B
S11304F02179280000F099F9F2BD00B50022CB065D
S113050003D51021C170984A02E0C80700D5974A64
S1130510100000BDF4B582B005000C000020EF7897
S1130520002002990870002069460870207F032883
S113053002D16069002805D0207F052804D16069B4
S1130540012801D1012600E0002668460078401CFD
S11305506946087039002800FFF7CFFF83498842B5
S113056003D1F6B2002E00D00020002800D080E095
S1130570217F01290BD1F90701D57C4879E0617904
S1130580002902D10321217701E004212177217F71
S1130590022906D06DD304293BD029D3052949D09B
S11305A067E0217B002909D0217B491E2173A168C2
S11305B0227B08235A43D140297118E0617900292C
S11305C00ED1032121776169002910D021690978AE
S11305D029712169491C21616169491E616106E033
S11305E001222179280000F03BF90421217740E021
S11305F06169002909D02169097829712169491C97
S113060021616169491E616102E00121029A117050
S11306102FE0A978E7220A40AA706169012903D171
S1130620A97808220A43AA7029796A46117005211B
S113063021771EE061694A1E6261002918D0616950
S1130640002908D10121029A11702178490702D4A6
S1130650280000F030F96169012903D1A978082242
S11306600A43AA7021692A790A702169491C216107
S1130670FFE7FEBD80B5C278D20602D48278920626
S113068003D59D4A1268904702E09C4A126890473D
S113069001BD000000E100E000700440882B000070
S11306A070B504000D001600002D01D0002E07D1F6
S11306B0CF2252001C49924800F01EFAC046C046A0
S11306C02000FFF7C3FE8F49042250430858FFF768
S11306D0A6FEA0784006400EA07022492000FFF735
S11306E0ACFE32006968200000F062F86079010015
S11306F0DF20084001006878400108436071A07958
S11307004006400E0100A878C00108430100E02023
S113071008400100287AC006C00E0843A07128785A
S1130720C001A07070BD0000E42600002C29000068
S1130730FFFF000010B50400002C07D1FF22E232B5
S11307407149724800F0D8F9C046C04670486060EC
S1130750002060700020A070002020720120207012
S113076010BD0000124000004F0400004E040000C1
S113077000B54A0603D58278402313438370890663
S113078007D581790A00BF2111400A0020211143B5
S1130790817100BD00B54A0603D58278BF2313409A
S11307A08370890603D581799F220A40827100BD36
S11307B0F5B583B00C000020C043009000200190E8
S11307C0002500260BE0001B0099884212D2F6B2E5
S11307D00196FFB23D00009000280BD1761CF6B2C2
S11307E0032E19D20098002816D00120B0400290A0
S11307F0002700E07F1CFFB2402FEFD2049802993B
S1130800444AFFB202237B43D25A514300F0C7F952
S1130810A042D8D2201AD7E701988001A906890EF0
S113082001430398417005B0F0BDF8B504000F0012
S113083015000026200000F053F8800601D5364E3E
S11308400CE0A07830210143A170EDB2012D01D15B
S1130850012000E000207900084320713000F2BD3F
S1130860F8B504000F0015000026200000F038F849
S11308700621800604D5A078800601D4264E18E00F
S113088060788206920E6270A27804231343A370E8
S1130890607000E000BF0800411EC0B20028F9D11A
S11308A0EDB2012D01D1012000E0002079000843C0
S11308B020713000F2BD10B5010000202B4A8B7866
S11308C0C7241C408C70CB789B0603D5521E92B271
S11308D0002AF8D192B2002A01D18A20C00010BDAA
S11308E000B50100C8788979490603D50100802044
S11308F0C001084300BD00007CF5FF1F80F5FF1F09
S11309000C2A0000902B0000E4260000F02A0000CE
S1130910A0860100882400004C040000F8B50700FC
S11309200C0016001D00002C07D1F72292003A4952
S1130930594800F0E1F8C046C0463800FFF786FD8C
S1130940070028210022200000F080F92662656259
S1130950524804217943445051485249086052484E
S1130960C057FFF765FDF1BD00000000FFFF000068
S1130970F8B507000C001600002C06D14B4A264996
S1130980454800F0B9F8C046C046002E07D1FD2204
S113099092002149214800F0AFF8C046C046002526
S11309A0207F002801D0434D0BE0320021003800A5
S11309B0FFF763FD0500002D03D140213800FFF748
S11309C0D7FE2800F2BD38B505000C00002C06D176
S11309D0374A1149304800F08FF8C046C0464021DC
S11309E02800FFF7D7FE0020207731BD38B50C0072
S11309F01500002C06D1304A0749274800F07CF83E
S1130A00C046C046002D01D1042004E0A0696169FC
S1130A10401A2860002032BDE4260000782B000034
S1130A2070B582B006000D00002D06D1234A24497A
S1130A30244800F061F8C046C04600240220F0704B
S1130A406A4629003000FFF765FD04006846007817
S1130A50002801D1002C1ED02878400702D51A485E
S1130A60844209D1B078800606D53000FFF723FF11
S1130A70002801D08A24E400002028774021300097
S1130A80FFF788FE286A002805D06B6A2200290037
S1130A9030002C6AA04773BD802B000074F5FF1F43
S1130AA0210A00007CF5FF1F02110000F30300007F
S1130AB00E0400004C040000190400002704000088
S1130AC0E4260000182B00004E04000080B50748FF
S1130AD001680748FFF7CEFD01BD000080B503485B
S1130AE041680448FFF7C6FD01BD000074F5FF1F0F
S1130AF0006006400070064080B513000A00010043
S1130B00024800F053F900BEFDE70000AC280000E5
S1130B10124207D08B0706D00B78491C0370401C87
S1130B20521EF7D87047830706D00B78491C037010
S1130B30401C521EF9D1704770B4103A03D378C9DF
S1130B40103A78C0FBD2530701D318C918C001D595
S1130B5008C908C0D20704D30B880380891C801CF1
S1130B60002A01D50B78037070BC7047F446002846
S1130B7004D4494200F013F840426047404200293F
S1130B8005D45FD000F00BF8404249426047494227
S1130B9000F005F84942604703460B43E6D40022BF
S1130BA0030A8B420BD203098B4219D243088B42AE
S1130BB02ED2411A00D20146524110467047FF22FC
S1130BC009023FD012068B4205D3121209028B424E
S1130BD001D31212090203098B4219D300E0090A56
S1130BE0C3098B4201D3CB01C01A524183098B4202
S1130BF001D38B01C01A524143098B4201D34B01EB
S1130C00C01A524103098B4201D30B01C01A52414D
S1130C10C3088B4201D3CB00C01A524183088B42D4
S1130C2001D38B00C01A524143088B4201D34B00BD
S1130C30C01A5241884200D3401A5241CFD20146D1
S1130C401046704708B500F05DFA08BD1206130A95
S1130C501A43130C1A4300BF094205D0830705D079
S1130C600270401C491EF9D170470000130030B4D3
S1130C7014001500103902D310393CC0FCD24907C6
S1130C8000D30CC000D504C0890002D30280801CAC
S1130C90002900D5027030BC7047000000B5C9B20D
S1130CA0002904D0C17808220A43C27003E0C17845
S1130CB0F7220A40C27000BD00B5C9B2002904D0B1
S1130CC0C17804220A43C27003E0C178FB220A40BF
S1130CD0C27000BD00B5C9B2002904D0C178082291
S1130CE00A43C27003E0C178F7220A40C27000BD13
S1130CF000B5C9B2002904D0C17804220A43C270E5
S1130D0003E0C178FB220A40C27000BD30B585B053
S1130D100C001D0036490978002901D0012024E087
S1130D2033490A70D2B2012A02D0032A1FD03BE011
S1130D302F49486002A800F093FA02942A0002A9FD
S1130D402B48406800F001FA012129484068FFF768
S1130D50A5FF012126484068FFF7AEFF2548244936
S1130D60886025482249C860002005B030BD20496C
S1130D704860684600F0DEFB00942A0069461C487F
S1130D80406800F01DFB012119484068FFF7A2FFED
S1130D90012117484068FFF7ABFF184814498860E1
S1130DA017481349C860DFE70420DEE70EB400B536
S1130DB00F490978002902D10020C04304E001AAA8
S1130DC00100104800F07DF8009904B0084701B50F
S1130DD007480078002802D10020C04307E0012220
S1130DE0694603484068024B9B689847012002BD4E
S1130DF064F5FF1FAD120000D1120000D7150000EA
S1130E0011160000CF0D0000F4B504001F000D0002
S1130E10069E06E0E4B22000B0473868401C386003
S1130E206D1C00988542F5DBF1BDF0B51C00002671
S1130E300500002028706D1C002A1CD00F68002FAC
S1130E4009D130202870761C300038E030300F0093
S1130E5028706D1C761C002F30D038002100FFF75D
S1130E609BFE010008006043381A0028EED50200FA
S1130E70D0433130EBE70F68002F21D130202870A8
S1130E80761C30001BE061220A3A80180F0028709B
S1130E906D1C761C002F11D038002100FFF77FFE57
S1130EA0010008006043381A0A2801D23030EDE707
S1130EB06A46127D002AE6D04122E5E73000F0BD03
S1130EC0E8E7F1B590B0140000200390002700205B
S1130ED0029000206A461071002004900D0006E084
S1130EE03000109988470298401C02906D1C2E789F
S1130EF0002E00D102E1252E06D03000109988473B
S1130F000298401C0290F1E70120694648710020D4
S1130F100590002005E005990A225143303E8919C5
S1130F200591002808D16D1C2E78310030390A292A
S1130F30F1D36D1E0120F4E706216D1C28782E28BC
S1130F4011D10021002003E00A225143303E8919C7
S1130F50002809D16D1C2E783200303A0A2AF3D3C6
S1130F606D1E0120F4E76D1E6D1C2E78642E12D0C8
S1130F70692E10D0662E0ED0462E0CD0782E0AD0B4
S1130F80582E08D06F2E06D0622E04D0702E02D0B8
S1130F90752E00D087E0642E01D0692E0FD1206811
S1130FA0241D06906846407900900A23012206A970
S1130FB007A8FFF73AFF070007A8C0190390582EA7
S1130FC001D0782E14D1782E02D1002069464871C0
S1130FD02068241D04906846407900901023002264
S1130FE004A907A8FFF721FF070007A8C019039069
S1130FF06F2E05D12068241D0490082069460871CD
S1131000622E08D12068241D0490022069460871CC
S113101007A8C0190390702E08D12068241D0490DD
S113102010206946087107A8C0190390752E08D1CD
S11310302068241D04900A206946087107A8C01975
S113104003906F2E05D0622E03D0702E01D0752E22
S11310500DD168464079009068460379002204A9BE
S113106007A8FFF7E2FE070007A8C019039010982D
S1131070009002AB059A39002020FFF7C5FE0398C3
S1131080002800D132E703980078002800D12DE72A
S113109003980078109988470398401E039002989B
S11310A0401C0290EFE7632E08D12068241DC0B2D3
S11310B0109988470298401C029017E7732E00D0BD
S11310C00EE72668241D002E00D10FE7300000F043
S11310D001FB07001098009002AB059A390020200C
S11310E0FFF792FE3078002800D1FFE6307810999F
S11310F08847761C0298401C0290F3E7029811B0CE
S1131100F0BD08097047FEE7010C614A89180A68B6
S11311100123834013430B60704710B5032100245F
S113112000E0641C8C4205D25A4A04236343D2581B
S11311308242F6D18C4206D3A52257495A48FFF77A
S1131140DBFCC046C046200010BDF4B582B00600EA
S11311500D00002D06D1D0224F495B48FFF7CCFC8F
S1131160C046C0462868002806D1D1224A495748BB
S1131170FFF7C2FCC046C0460024002000270298A6
S1131180296810225143FFF70AFD0400A4B2002C81
S113119000D101240298A4B210216143FFF7FFFC9F
S11311A02968471A296800910298A4B22100491CB1
S11311B010225143FFF7F3FC0099081AB8420AD2EF
S11311C02F680298A4B22100491C10225143FFF752
S11311D0E6FC3F1A641C28686421FFF7E0FC032145
S11311E04843B84201D2514839E03000FFF795FF37
S11311F04F49042250430858FFF786FFF078F32143
S11312000140F1703078E0210140200080B2000AF2
S1131210084330707470B178EC20084029790029B3
S113122004D002002979102008431043B0703078AC
S1131230DF210140687940012022104008433070CA
S1131240F078A979002902D0010008200843E9793F
S1131250002902D0010004200843F0700020FEBDE4
S113126010B50400002C07D1FF2252320A49164857
S1131270FFF742FCC046C046E12040022060002047
S11312802071002060710020A0710020E07110BD69
S113129000700440242B0000382700000179C9B2F3
S11312A04079000208437047282A000000B505E091
S11312B003791B06FCD50B78C371491C13005A1E15
S11312C0002BF5D100BD0000A82B0000902A0000DF
S11312D070B506000C001500002C06D1174A1549FC
S11312E01548FFF709FCC046C04602E0F0792070BB
S11312F0641C2800451E002816D030798006F5D4D9
S11313003000FFF7CBFF010701D50D480DE0410781
S113131001D50C4809E0810701D50B4805E0C00759
S1131320EBD5FD20800000E0002070BDF503000037
S1131330302B000038270000B02B00002F020000E3
S1131340F1030000F2030000F303000080B5084835
S113135041680848084A1268904701BD80B50448AE
S113136081680648044A1268904701BD00000000E5
S11313708CF5FF1F00B0064098F5FF1F00C0064023
S1131380010C784A89180A680123834013430B60CF
S1131390704710B5002400E0641C002C05D172498C
S11313A00422624389588142F6D1002C06D08C2253
S11313B06E496F48FFF7A0FBC046C046200010BD31
S11313C0F6B585B004000598002806D1D3226749F4
S11313D06848FFF791FBC046C0460598006800289E
S11313E006D1D42261496448FFF786FBC046C04653
S11313F000206946888000200390059800680290C8
S1131400042534E00698059909686943FFF7C7FB8A
S11314100600B6B2002E00D1012606982900B6B205
S11314207143FFF7BCFB05990968471A05980168E1
S113143000910698B6B23100491C6943FFF7AFFB2F
S11314400099081AB8420AD2059807680698B6B2F5
S11314503100491C6943FFF7A2FB3F1A761C02982E
S1131460B84203D302970395684686806D1C212DEC
S1131470C8D3059800686421FFF791FB0321484312
S11314800299884201D2604852E02000FFF781FFB0
S11314905E49042250430858FFF772FFE078F321B5
S11314A00140E1700398001F042803D2E07A02216E
S11314B00143E172A07AE02101400398401E0843F1
S11314C0A072A07AE02101406846808880B2000AB8
S11314D008432070684680886070A178EC2008403A
S11314E005990979002905D0020005980179102091
S11314F008431043A0702078DF2101402170207838
S11315000599497949012022114001432170E0786D
S113151005998979002902D001000820084305991A
S1131520C979002902D0010004200843E07000209A
S113153007B0F0BD10B50400002C07D1FF224E32D5
S11315400A490C48FFF7D8FAC046C046E1204002D9
S1131550206000202071002060710020A071002014
S1131560E07110BD007004402C2C000038260000EF
S113157054290000A02B0000782A00000179C9B288
S1131580407900020843704780B500226B461A7008
S11315906A461278521C6B461A700A0404D58022DB
S11315A042710A003B4911404A0404D54022427169
S11315B00A0039491140CA06D20E002A05D00A0091
S11315C0D206D20E02711F208143002901D0344873
S11315D000E0002002BD70B506000C001500002CD0
S11315E00DD12E4A2A492F48FFF786FAC046C04635
S11315F005E030790006FCD52078F071641C2800E1
S1131600451E0028F5D170BDB5040000302C000043
S113161070B506000C001500002C07D1842292003E
S11316201B492048FFF768FAC046C04602E0F0793B
S11316302070641C2800451E002826D030798006BE
S1131640F5D43000FFF79AFF010706D508213000D2
S1131650FFF79AFF9720C00018E0410705D5042141
S11316603000FFF791FF104810E0810705D50221F3
S11316703000FFF789FF0D4808E0C007DED50121DF
S11316803000FFF781FF0A4800E0002070BD000031
S113169038260000FF7FFFFFFFBFFFFF01020000AD
S11316A0B4040000982B0000B9040000BA04000040
S11316B0BB04000080B5044801680448044A126869
S11316C0904701BD0000000084F5FF1F00A0064004
S11316D088F5FF1F010000E0491C0A78002AFBD1AD
S11316E0081A70477A4909687A4A0A408004C02176
S11316F0090301401143764801607047764909683F
S1131700764A0A4000048021490208401043724985
S113171008607047027813005F221A4013000A78A9
S11317201A430270704702781300F0221A401143E2
S11317300A000270704780B593480068002806D1FB
S1131740CE2267496748FFF7D7F9C046C0468E489E
S1131750006802BD80B5FFF7EEFF002823D0624980
S11317600978C9B2C9084907490FC8408D4A127897
S1131770D2B212099207920FD2B2002A13D0C9B280
S11317800029052904D9891F04D0491E06D009E07F
S1131790400908E01421FFF702FA04E00C21FFF7E6
S11317A0FEF900E0002002BD00B57F480078C007C4
S11317B002D47E48006808E07D4800687D490978C5
S11317C0C9B249084907490FC84000BD80B57648E9
S11317D00078C0B20100C906C90F002902D1FFF781
S11317E0B9FF01E07148006802BD80B5FFF7A3FFAF
S11317F002BD00B57049884201D2002005E07D4950
S1131800884201D2012000E00220C0B200BD80B5B0
S11318107948007800060ED55B480068002807D197
S1131820A72252002E492F48FFF766F9C046C0464A
S11318305548006800E0002002BD80B524480068D7
S1131840800C8007800F002804D002280DD00328C4
S11318501AD01CE0FFF7DBFF80210902884202D185
S11318608020000200E0002012E07B48006800288D
S113187007D1B12252001A497848FFF73DF9C04612
S1131880C0467548006803E0FA20800000E00020AC
S113189002BD80B5104800680100C903C90F0029C2
S11318A002D0012903D006E000F0A8F804E000F01B
S11318B0E6F8400800E0002002BD80B500F07EF8A4
S11318C087490968090F491CFFF769F902BD00003F
S11318D000700440FFFFF3FF04800440FFFFFEFF9D
S11318E0E0250000002B00000040064080B5C0B297
S11318F00028012814D9801E1BD0801E19D0401E38
S113190028D0401E29D0401E39D0401E28D0401E69
S113191029D0401E2AD0401E2BD0801E2CD031E06E
S113192000F04CF86E490968090F491CFFF737F9B4
S113193029E000F043F86A490968090F491CFFF7D8
S11319402EF967490968090C4907490F491CFFF733
S113195026F918E0FFF79DFF15E0FFF76EFF12E090
S113196000F07EF80FE000F06DF80CE000F046F8AF
S113197009E000F084F806E0FA20800003E0FFF7B5
S113198046FF00E0002002BD5CF5FF1F10B5040017
S11319906068534908602078FFF7B0FE6078FFF76D
S11319A0A1FE10BD014006400640064000F0FF1FA6
S11319B004F0FF1F084006409898000080B5734863
S11319C00078C0B280088007800F002807D0022862
S11319D00BD007D303280BD100F051F809E000F035
S11319E00DF806E0FFF7E0FE03E0FFF7A4FE00E0D9
S11319F0002002BD01127A000050064010B5644870
S1131A000078800703D461480078800601D500205F
S1131A1017E0FFF7DBFE002813D05E490978C9B24E
S1131A2049098907890F5B4A1278D2B2D209704BEF
S1131A30C9B2042461435918D2B202235A43895AC1
S1131A40484310BD80B56B480078800701D400205E
S1131A5001E0FFF7A9FE02BD60F5FF1FD02A0000D8
S1131A6010B5FFF7B3FE0400002C06D0FFF7A6FF65
S1131A70C008A04201D3200000E0002010BD10B532
S1131A8042480078400601D400201DE0FFF7ADFE77
S1131A900400002C06D1584A58495948FFF72CF83D
S1131AA0C046C046200057490978C9B2C906C90EC4
S1131AB0491CFFF774F8040054480078C0B2C0060B
S1131AC0C00E18304443200010BD00B530480078E3
S1131AD0400703D52D4800788007FBD5002000BDC2
S1131AE04480044070B5294B1B78DBB29B089B07EC
S1131AF09B0F264C25782C00E407E40F424D2D78EB
S1131B00EDB26D086D076D0F1600F6B2EDB2AE4280
S1131B101CD0E4B2012C0FD1012B03D0354C247816
S1131B20A40709D51A4C2478FE252540184C2570A5
S1131B30164C2478E407FBD4334C2478D025254074
S1131B4052000E2414402C432F4A1470104A127869
S1131B50FE2414400A00D207D20F22430C4C2270F8
S1131B60244A1278FC2414400443224A1470012BA2
S1131B7001D0800708D505480078C0B20200D2071A
S1131B80D20FC9B28A42F6D1002070BD0640064089
S1131B90014006400340064010B50400002C07D164
S1131BA0BF22920015492E48FEF7A6FFC046C04644
S1131BB0002001006078C006C00E08431149087077
S1131BC012480078E0210140A078C006C00E084306
S1131BD00E4908700B480078217840220A430243DA
S1131BE008480270204800784006FBD510BD00006C
S1131BF0E02A0000004006404F020000E0250000FB
S1131C000C2B0000044006400840064005400640F6
S1131C1038B504002068FFF7ECFD0500217913486E
S1131C20FFF781FDA11D1148FFF774FD0D480078F1
S1131C30C32101402801302202400A436079104345
S1131C40084908706079002807D008480078000621
S1131C5003D5054800788007FBD531BD000000009E
S1131C60702B00000140064006400640005006402C
S1131C7080B518480078FD220240164802702948B1
S1131C8000783B22024080201043264A10702648E8
S1131C900078C0B21C220240082AF8D10C4800780F
S1131CA0BF2202400A4802701F4800788006FBD415
S1131CB00800FFF771FF06480078402101430448FB
S1131CC00170194800788006FBD5002002BD000091
S1131CD0054006400140064070B506000D001400A2
S1131CE0002C06D1114A12491248FEF705FFC046DE
S1131CF0C0463000C0B2FFF7E8FE21002800C0B2A1
S1131D00FFF7B6FF074800788006800E0549087083
S1131D1005480078C0B280088007800F0328F7D1F7
S1131D20002070BD0040064006400640EF0500005C
S1131D30E0250000702B000080B5002A03D06F4816
S1131D40824202D003E0012002E0102000E0802063
S1131D5001216B4A117080490968002902D07E492B
S1131D600968884701BD00001648006870470000F4
S1131D70154800687047000038B504002821002287
S1131D80764D2800FEF762FF18210022744D2800CA
S1131D90FEF75CFF7348FEF7CDFC73487149486059
S1131DA00220FFF7A3FD02006E497048FEF778FC9D
S1131DB000236F4A69496D48FEF7B0FD6648046028
S1131DC0002032BD242C0000282C00000020C04339
S1131DD0704780B5C0B2002803D0022804D002D3D3
S1131DE006E0002002BDFCE70020FFF7C5FFF8E78E
S1131DF00320C043F6E710B50023594C6371584BD8
S1131E0018710878564B98600120554B1873481C7C
S1131E1053490861521E52484261514A4F4953483E
S1131E20FEF7A6FD364909780029FBD00021344A83
S1131E301170002801D1002001E00020C04310BD32
S1131E4010B50123464C6371454B18710878444B17
S1131E5098600120424B1873481C41490861521E86
S1131E603F4842613E4A3D494048FEF781FD2449CE
S1131E7009780029FBD00021214A1170002801D1E2
S1131E80002001E00020C04310BD00000020704786
S1131E900020704780B56A4630493448FEF7A6FDF5
S1131EA0009802BD80B5012806D024D303281BD096
S1131EB004D3042819D01EE0002002BD012904D057
S1131EC00FD3032909D004D30BE02A4825494860DD
S1131ED0F2E7254823494860FAE727482149486042
S1131EE0F6E70320C043E8E7E6E71C491F48FEF78E
S1131EF06AFD0020E1E70320C043DEE74E04000052
S1131F00A8F5FF1F80B51948FEF7EAFC0090694662
S1131F100A681000C002C00F0001102210400A68B5
S1131F2011004906C90F0122904302000800C007AE
S1131F30C00F10432021884304218843020008482D
S1131F40407980000421084010430821884301009F
S1131F500220084302BD00000CF5FF1F34F5FF1FEB
S1131F601CF5FF1F10F5FF1F801A060000700640C5
S1131F70391D0000A086010040420F00010C334AC5
S1131F8089180A680123834013430B60704770B5B6
S1131F9005000C001600002E06D1D1222C492D4834
S1131FA0FEF7AAFDC046C0460420444328193188E0
S1131FB0018070BD10B404234B43C358264C1C400D
S1131FC0D2B21202E023DB00134023430422514324
S1131FD0435010BC704780B52048FFF7CFFF022262
S1131FE001211F48FFF7E6FF022202211C48FFF7E8
S1131FF0E1FF1C48FFF7C2FF1B48006800906846D9
S11320000088032101436846018068460088174917
S11320100140802080000843694608806A46022106
S11320201348FFF7B4FF6A4603211148FFF7AFFFD7
S11320301048FFF7A3FF6A4601210F48FFF7A7FFE7
S11320406A4602210C48FFF7A2FF01BD007004405C
S1132050E8210000B82B0000FFF8FFFF090038104A
S1132060009004400A003810342C0000FFF80000EF
S113207000A004400B00381000B0044070B5050007
S11320802C000F3407208443C046C046A54233D2F7
S1132090082C04D2082402E0083000F04BF824484D
S11320A0026811000CD1011D0A68002A20D01368AF
S11320B0A34212D2111DF7E71D68A5420DD2191DC6
S11320C00B68002BF8D11268011D00E0191D0B6884
S11320D093420DD01D68A542F8D300290CD00D6899
S11320E02A681300083BA3420AD26A680A600FE018
S11320F000F064F80028CFD1C046C046002070BD6F
S11321002B190B606E685E60121B0B681A602C60E2
S11321100968002904D04A68002A01D0091D00E09A
S113212000210160C046C0462800083070BD000090
S11321309CF5FF1F002800D1704738B5083804000B
S11321402068082836D3400734D1C046C0461A4810
S11321504168002901D08C4203D26160446019E0D7
S113216019004B68002B01D0A342F9D30B68CD189A
S1132170AC421DD3A54204D122689A180A600C000F
S113218008E04A68002A03D02368E3189A420FD370
S113219062604C60616800290AD02268A3188B42EF
S11321A006D1002303600868101820604868606046
S11321B0C046C04631BD00009CF5FF1F07490868B2
S11321C0002801D00020704705480722904308608A
S11321D004499143091A0160704700BFA4F5FF1F29
S11321E0B7F5FF1FB0F9FF1F443A5C576F726B736A
S11321F0706163655C4275696C645F54656D705CA5
S113220053444B5F322E305F4652444D2D4B4C327B
S1132210355A2D50333131355C626F617264735CB1
S11322206672646D6B6C32357A5F70333131355C54
S1132230697373646B5F6578616D706C65735C73EF
S1132240656E736F72735C6D706C333131355C6DB8
S1132250706C333131355F6F6E6573686F745C69B0
S113226061722F2E2E2F2E2E2F2E2E2F2E2E2F2E0E
S11322702E2F2E2E2F2E2E2F646576696365732FD5
S11322804D4B4C32355A342F647269766572735CE7
S113229066736C5F706F72742E680000F2B582B062
S11322A005001C0068460021018068460270089EF3
S11322B0F6B2002E0FD00123022269466846008937
S11322C0AF69B84700280FD168464078B04304434B
S11322D06846447001E068464470099B02226946DE
S11322E0684600896C69A047FEBDF2B50600170078
S11322F01C00E4B22000401C00F01FF805002F7001
S11323000023E4B22200521C290068460088B66902
S1132310B0470600002E04D0280000F018F8300062
S11323200AE0E4B22200691C069C2000FEF7F0FBE0
S1132330280000F00CF83000F2BD80B5FFF79EFED7
S11323400090002801D100F006F8009802BD80B585
S1132350FFF7F0FE01BD80B5012000F001F801BDDA
S113236080B5C046C046024A11001820ABBEFBE748
S11323702600020019481A49086070471949086084
S11323807047E0B5194800680090194803C801AACD
S113239003C2083AFFF7EEFF00F011F86A46002185
S11323A00020FFF799FC002200210220FFF79AFB8E
S11323B001A8FFF7EBFA0F480B49086007BD00B509
S11323C083B00D4803C86A4603C2083A6846FFF75B
S11323D01FFC0A48FFF7D2FF07BD000000000310EE
S11323E0448004405CF5FF1F08F0FF1F202C000010
S11323F0602B0000006CDC02682B000000127A00E5
S1132400F0B583B004000E0015001F00002C01D0AD
S1132410002E01D1012018E001A8009001230C2214
S1132420290089B23000FFF760FF002804D1684614
S11324300079FFB2874203D00020A071032004E09A
S11324402660A5800120A0710020FEBD1CB50400FB
S1132450002C01D1012015E0A079002801D103202E
S113246010E0002001900420009004232622A1887B
S11324702068FFF713FF002801D0042002E00020A9
S1132480A071002016BDFEE71400160018001A0003
S11324901C001E00220028001C002000240028002C
S11324A02C00300038004400300038004000480060
S11324B050005800680080005000600070008000E8
S11324C09000A000C000F000A000C000E0000001E7
S11324D0200140018001E00140018001C0010002AF
S11324E0400280020003C003800200038003000452
S11324F080040005000680070005000600070008A8
S11325000009000A000C000F10B5002400E0641C50
S1132510052C05D214490422624389588142F6D11C
S1132520052C06D3442211491148FEF7E5FAC046AA
S1132530C046200010BD80B5FFF7E6FF0D49C0B2CC
S1132540042250430858A021405802BD10B50C0085
S1132550FFF7DAFF0749C0B2042250430858A0210C
S1132560445010BD00000000BC2A0000902600006A
S113257004290000A82A0000F8B507000E0038005E
S1132580FFF7D9FF0400002510E01448F6B28022BA
S1132590520072438018EDB208226A43805888477B
S11325A00121A9403800FFF7D1FF6D1CEDB2202DA9
S11325B012DA2000E840C007F7D50848F6B28021B7
S11325C0490071434018EDB208216943401841683D
S11325D008000028D9D1E8E7F1BD00000CF0FF1F86
S11325E0443A5C576F726B73706163655C427569E2
S11325F06C645F54656D705C53444B5F322E305F86
S11326004652444D2D4B4C32355A2D5033313135D1
S11326105C646576696365735C4D4B4C32355A3442
S11326205C647269766572735C66736C5F636C6F0D
S1132630636B2E6300000000443A5C576F726B7347
S1132640706163655C4275696C645F54656D705C50
S113265053444B5F322E305F4652444D2D4B4C3227
S1132660355A2D50333131355C6465766963657351
S11326705C4D4B4C32355A345C64726976657273C6
S11326805C66736C5F6C707363692E63000000009A
S1132690443A5C576F726B73706163655C42756931
S11326A06C645F54656D705C53444B5F322E305FD5
S11326B04652444D2D4B4C32355A2D503331313521
S11326C05C646576696365735C4D4B4C32355A3492
S11326D05C647269766572735C66736C5F6770695B
S11326E06F2E6300443A5C576F726B73706163655D
S11326F05C4275696C645F54656D705C53444B5FF8
S1132700322E305F4652444D2D4B4C32355A2D50AB
S1132710333131355C646576696365735C4D4B4C6C
S113272032355A345C647269766572735C66736CB4
S11327305F6932632E630000443A5C576F726B73B7
S1132740706163655C4275696C645F54656D705C4F
S113275053444B5F322E305F4652444D2D4B4C3226
S1132760355A2D50333131355C6465766963657350
S11327705C4D4B4C32355A345C64726976657273C5
S11327805C66736C5F756172742E63001CB50E4CCD
S1132790FFF721FCFFF7F5FD00F026F80020A16803
S11327A0884702210220A26A90470848FEF7FEFAF1
S11327B0C423602221006846FFF722FE6846FFF723
S11327C045FE002016BD00BF4C280000D82800009C
S11327D00C4909680C4A0A408006C02109050140D9
S11327E0114308480160704780B50120FFF7F0FFEE
S11327F0FFF763F803000322E12149020348FEF7CF
S113280085FA01BD04800440FFFFFFF300A00640E9
S113281070B40121002213E00468001D0C4202D0B0
S11328204D466D1E64192260241D1B1F042BFAD211
S113283025009E0701D52280AD1C0B4000D02A70D4
S11328400368001D002BE7D170BC7047691D0000B0
S1132850711D0000791D0000CD1D0000D31D000076
S1132860F71D0000411E00008D1E0000911E000097
S1132870951E0000A51E0000051F000030B40121B4
S11328800268001D002A0FD00368C318446808308A
S11328900C4202D04D466D1E64191D6825601B1D37
S11328A0241D121FECD0F8E730BC70474153534548
S11328B05254204552524F52202220257320223A4E
S11328C02066696C652022257322204C696E652080
S11328D022256422200A00000D0A536574207468BE
S11328E06520493243204275732053706565642026
S11328F0746F204661737420283430304B627073D7
S1132900290D0A00696E7374616E6365203C20466C
S1132910534C5F464541545552455F534F435F47BF
S113292050494F5F434F554E54000000696E737415
S1132930616E6365203C2046534C5F4645415455C7
S113294052455F534F435F4932435F434F554E54A3
S113295000000000696E7374616E6365203C20465C
S1132960534C5F464541545552455F534F435F4C6A
S1132970505343495F434F554E54000010B5074927
S113298079441831064C7C44163404E0081D0A6866
S1132990891888470100A142F8D110BD2C0000001D
S11329A04C00000072B604480449016004488047A2
S11329B062B604480047000008ED00E00000000093
S11329C03D2B0000492B000049FEFFFFA00500003D
S11329D00CF0FF1F00000000A5FEFFFF0C0000002C
S11329E07401000000F0FF1F0000000080B500210A
S11329F00448FFF7C1FD01BD80B503210248FFF77C
S1132A00BBFD01BD00F00F40C0F00F406D61737459
S1132A106572436F6E66696720262620737263436E
S1132A206C6F636B5F487A00696E7374616E636583
S1132A30203C20756172744172726179436F756EC6
S1132A407400000000F00BF8002801D0FFF796FF97
S1132A500020C046C046FFF799FE00F002F80120AE
S1132A60704780B500F002F801BDFEE7074638461E
S1132A70FFF776FCFBE7FEE7636F6E6669672D3E42
S1132A8062617564526174655F4270730000000096
S1132A90636F6E6669672D3E626175645261746529
S1132AA05F427073000000000090044000A00440E6
S1132AB000B0044000C0044000D0044000F00F40C7
S1132AC040F00F4080F00F40C0F00F4000F10F4085
S1132AD0675F7874616C3332467265710000000080
S1132AE08002DC020005B80580079508000A710B16
S1132AF06D6173746572436F6E66696700000000F0
S1132B00675F7874616C3046726571006D636770DD
S1132B106C6C30636C6B000069326348616E646C8A
S1132B20650000000000000000B0064000C0064040
S1132B30000000000B0034100C0034100020014988
S1132B400860704700810440C046C046C046C04685
S1132B50FFF778FF0080000000093D0000004001FD
S1132B60010300000000011000127A00000480003C
S1132B70636F6E6669670000786665720000000026
S1132B8068616E646C650000006006400070064079
S1132B900600341007003410646174610000000002
S1132BA0636F6E6669670000636F6E666967000035
S1132BB06461746100000000636F6E666967000001
S1132BC000480047192C000000480047192C000059
S1132BD000480047192C000000480047192C000049
S1132BE000480047CD0A000000480047DD0A000005
S1132BF000480047192C000000480047192C000029
S1132C0000480047B5160000004800474D13000077
S1132C10004800475D13000000480047192C0000DD
S1132C2000010000020200020000000000A00640B3
S10D2C300A00341000000000FEE763
S9032B4988
