S01800004652444D5F4B4C32375A5F42333131352E73726563BF
S1130000003000204D340000371800007F1F00002E
S113001000000000000000000000000000000000DC
S1130020000000000000000000000000831F00002A
S11300300000000000000000FF2C00006F350000ED
S1130040D9360000E1360000E9360000F136000040
S113005031370000313700003137000031370000FC
S1130060F93600000137000009370000113700009D
S1130070193700002137000029370000313700000C
S113008031370000313700003137000031370000CC
S113009031370000313700003137000031370000BC
S11300A031370000313700003137000031370000AC
S11300B03137000031370000D5340000E13400004E
S1130400FFFFFFFFFFFFFFFFFFFFFFFFFE3DFFFFBB
S11304100121C206D20E91404E4A11607047010C70
S11304204D4A89180A68012383409A430A60704739
S113043010B5040064B27F20C043844203D020007E
S113044040B2FFF7E5FF10BD00B5C9B2002904D0E2
S1130450827880231343837003E082785206520E1D
S1130460827000BD10B50400200000F045FA10BDF4
S113047000B5CA0403D582790B0A134383714A0475
S113048003D582790B0A134383710A00C27000BD3D
S113049038B505000C0021002800FFF7E9FF31BD45
S11304A038B5050000200400022C07D28D48042131
S11304B061434058A84201D0641CF5E7022C06D3DE
S11304C0B5228949954800F0D7FCC046C0462000B3
S11304D032BDF8B507000C00160000256846717996
S11304E0017020003100182200F0D4FC7069A06172
S11304F0207B002805D07079012802D100206946AC
S11305000870012020778E493800FFF7B1FF20786A
S1130510800707D5684602782179380000F09EF9F3
S1130520050006E0684602782179380000F076F983
S113053005002800F2BD00B502000020CB0604D55A
S11305401023D3707F4B180003E0CB0701D57E4BFB
S1130550180000BD00E100E000700440F7B505009C
S11305600C000026E8780190002002990870002011
S113057069460870207F032802D16069002805D0ED
S1130580207F052804D16069012801D1012700E0FA
S1130590002768460078401C6946087001992800C5
S11305A0FFF7C9FF06006848864204D1FFB2002F56
S11305B001D000200600207F012813D10198C00734
S11305C002D5954806000DE0207B002802D00220C9
S11305D0207707E06079002802D10320207701E02A
S11305E004202077002E01D0300079E0207F0228FB
S11305F006D074D304283CD02AD305284AD06EE010
S1130600207B002809D0207B401E2073A068217B1A
S113061008225143C840287119E0607900280ED19E
S1130620032020776069002811D0206900782871A0
S11306302069401C20616069401E606107E001225E
S11306402179280000F00AF906000420207746E00A
S11306506069002809D02069007828712069401C4D
S113066020616069401E606102E001200299087007
S113067035E0A878E7210140A9706069012803D119
S1130680A87808210143A9702879694608700520D3
S1130690207724E06069411E616100281ED06069F2
S11306A000280ED10120029908702078400704D454
S11306B0280000F005F9060003E0A87810210143A2
S11306C0A9706069012803D1A87808210143A970A1
S11306D02069297901702069401C2061FFE73000FE
S11306E0FEBD000088360000F82F000038B5050074
S11306F00C00E878C00602D4A878800605D521004D
S113070028007A4A1268904704E021002800784AB9
S113071012689047BFF34F8F31BD0000EC320000E8
S113072010B5040000212000FFF78EFE2000FFF723
S1130730B7FE7049042250430858FFF770FE10BDFD
S1130740125000004F0400004E04000010B54B0688
S113075003D5837840241C4384708B0608D58379A1
S11307601A001300AF221A40130020221A43827188
S113077010BD00B54A0603D58278BF2313408370A9
S11307808A0603D582798F231340837100BDF5B5A2
S113079085B00C000020C04300900020039000208E
S11307A0029000200600F6B2032E2BD200980028F7
S11307B028D00120B040049000200700FFB2402F51
S11307C01ED206980499554AFFB202237B43D25A9B
S11307D0514300F079FB01900198A04202D20198A4
S11307E0251A01E00198051B0098854206D2F6B24D
S11307F00396FFB202970095002D01D07F1CDDE720
S1130800761CD0E70398800102998906890E01437A
S11308100598417007B0F0BD51040000F8B504001C
S11308200F0015000026200000F066F8010088067D
S113083002D53B4806000FE0A07830220243A270A4
S1130840207BC007FCD5EDB2012D01D1012000E0D1
S113085000207A00104320713000F2BDF2B504008C
S113086017000025200000F047F801000622880642
S113087005D5A078800602D4294805001EE06078DA
S11308800600B006800E6070A07814230343A370A2
S113089066701000421EC0B2002801D000BFF8E705
S11308A0207BC007FCD5FFB2012F01D1012000E05D
S11308B000206B461B785B00184320712800F2BDB2
S11308C010B501000020174A8B78C7241C408C7097
S11308D0CB789B0603D5521E92B2002AF8D192B26D
S11308E0002A02D18A23DB00180010BD3CF0FF1F50
S11308F040F0FF1F9036000000B50100C8788A79E7
S1130900520603D502008020C00110438A79D20622
S113091003D5020080204001104300BD982D000043
S11309204C040000FFFF0000FDB50C00002C06D1B4
S1130930694A4249694800F09FFAC046C046009897
S1130940FFF7AEFD050028270026320039002000FD
S113095000F012FB01982062029860626048042152
S1130960694344505F486049086061484057FFF755
S11309705FFDF7BDF8B507000D001600002D06D188
S11309805A4A2E49554800F077FAC046C046002E10
S113099006D1584A29492A4800F06EFAC046C04692
S11309A00024287F002802D0534804000BE03200C2
S11309B029003800FFF78DFD0400002C03D14021ED
S11309C03800FFF7C3FE2000F2BD000038B5040074
S11309D00D00002D06D1494A1849404800F04CFA50
S11309E0C046C04600206946087068460078401C2E
S11309F06946087040212000FFF7BBFE00202877DD
S1130A006879012810D1A07808210143A170E07809
S1130A108007FCD50220E070A078C7210140A170B6
S1130A2020796946087008E0E0788007FCD5022048
S1130A30E070A078C7210140A17031BDF82F0000FB
S1130A4078360000F0B583B005000E00002E06D104
S1130A50404A2B49404800F00FFAC046C046009671
S1130A6000240220E87001AA00992800FFF776FD0F
S1130A70040068460079002801D1002C27D0009892
S1130A800078400705D53548844202D01148844295
S1130A900AD1A878800607D52800FFF711FF00289F
S1130AA002D08A20C0000400002000990877402169
S1130AB02800FFF75EFE0098006A002807D000981F
S1130AC0436A220000992800009F3F6AB847F7BD97
S1130AD000000000510400002704000080360000DC
S1130AE034F0FF1F450A00003CF0FF1F3E040000E5
S1130AF0760F00003F0400004C040000590400007D
S1130B00F82F0000FDB50C00002C06D13A4A3B49F1
S1130B103B4800F0B1F9C046C0460098FFF7C0FC5E
S1130B2005002427002632003900200000F024FAB2
S1130B300198E061029820623248042169434450DC
S1130B4031483249086032484057FFF771FCF7BD1D
S1130B50000000008C040000343600004E04000045
S1130B60F4B582B005000C00002C06D1294A2349B3
S1130B70234800F081F9C046C0462078002801D0FF
S1130B8025481BE060212800FFF7F3FD14200090A6
S1130B900026271D32000099380000F0EDF90120ED
S1130BA02070029846210143A161AA492800FFF759
S1130BB06FFC60212800FFF7C9FD0020FEBDF1B5E0
S1130BC00C00002C06D1A44A0C490D4800F054F93D
S1130BD0C046C046207800280DD060210098FFF759
S1130BE0C8FD14250026271D32002900380000F016
S1130BF0C3F900202070F1BD74050000F82F000037
S1130C008036000034F0FF1F1D0C000040F0FF1F71
S1130C10760F00008B0500004C040000F2B582B092
S1130C2005000298002806D18C4A8D498D4800F0B1
S1130C3023F9C046C0460027029C002069468870FC
S1130C4068468078401C694688702800FFF70AFCD3
S1130C5069460880201D06006846008840041DD5AA
S1130C608021C9012800FFF703FC0220E8702078E6
S1130C70002812D0202030700020F0600020207066
S1130C80A06931780140002907D0E069002804D028
S1130C90226A31002800E3699847CBE0684600885F
S1130CA0C0041AD5802149012800FFF7E1FB022086
S1130CB0E87010203070A06931780140002907D015
S1130CC0E069002804D0226A31002800E3699847CB
S1130CD068460088400600D4ACE00220E87068460C
S1130CE00088C0071DD5A878E7210140A97028799C
S1130CF069468870E068002871D0202030705A4816
S1130D00F06000202070A06931780140002966D08D
S1130D10E069002863D0226A31002800E36998471B
S1130D205DE068460088400629D501202070012036
S1130D30307068460088400706D5A8781021014322
S1130D40A970012007000CE0A878E7210140A970F0
S1130D5028796946887068468078002801D1402047
S1130D603070A06931780140002938D0E06900284A
S1130D7035D0226A31002800E36998472FE068469D
S1130D800088000628D568460088400702D501205F
S1130D90070024E07068002802D0B06800280BD156
S1130DA004203070E069002804D0226A3100280051
S1130DB0E3699847002030612879E16800290ED062
S1130DC0A1684A1CA2600870E168491EE1603169AB
S1130DD0491C3161E16802E0287969468870FFB2F4
S1130DE0002F27D07068002802D0B06800280BD1EB
S1130DF002203070E069002804D0226A3100280003
S1130E00E369984700203061E06800280BD0A068AF
S1130E10411CA16000782871E068401EE0603069E0
S1130E20401C306106E0A878E7210140A9702879C8
S1130E3069468870F7BD80B50C4801680C48FFF717
S1130E4055FC01BD80B5094841680A48FFF74EFCCE
S1130E5001BD000012500000AC050000D3050000E5
S1130E60F82F0000343600004E04000034F0FF1F59
S1130E70006006400070064070B506000D001400C6
S1130E8023002A003100024800F02CF900BEFDE7DF
S1130E909832000070B4103A03D378C9103A78C07D
S1130EA0FBD2530701D318C918C001D508C908C01B
S1130EB0D20704D30B880380891C801C002A01D527
S1130EC00B78037070BC70470022030A8B420BD26C
S1130ED003098B4219D243088B422ED2411A00D205
S1130EE00146524110467047FF2209023FD01206C4
S1130EF08B4205D3121209028B4201D3121209024A
S1130F0003098B4219D300E0090AC3098B4201D3B8
S1130F10CB01C01A524183098B4201D38B01C01A01
S1130F20524143098B4201D34B01C01A5241030978
S1130F308B4201D30B01C01A5241C3088B4201D327
S1130F40CB00C01A524183088B4201D38B00C01AD4
S1130F50524143088B4201D34B00C01A524188428C
S1130F6000D3401A5241CFD201461046704708B50B
S1130F7000F060FC08BD08091206130A1A43130C9A
S1130F801A4300BF094205D0830705D00270401CF4
S1130F90491EF9D170470000130030B41400150045
S1130FA0103902D310393CC0FCD2490700D30CC01D
S1130FB000D504C0890002D30280801C002900D51A
S1130FC0027030BC7047000000B5C9B2002904D0DB
S1130FD0C27808231343C37003E0C278F723134095
S1130FE0C37000BD00B5C9B2002904D0C27804237F
S1130FF01343C37003E0C278FB231340C37000BDE6
S113100000B5C9B2002905D0826880231B031343AD
S1131010836003E08268484B1340836000BD00B5E1
S1131020C9B2002905D082688023DB0213438360A0
S113103003E08268414B1340836000BDF0B585B086
S113104006000D0014001F003D480078002801D060
S1131050012045E03A480470E4B22000012802D09F
S113106002281DD039E036484660684600F09FFCEF
S113107000953A0069463248406800F000FC0121BE
S11310802F484068FFF7A0FF01212D484068FFF773
S1131090A9FF2C482A4988602B482949C8601EE0CA
S11310A02748466002A800F00DFE02953A0002A906
S11310B02348406800F014FD012121484068FFF7EF
S11310C09FFF01211E484068FFF7A9FF1F481C49E4
S11310D088601F481A49C86001E0042000E000202D
S11310E005B0F0BD0EB478B50500154800780028A9
S11310F002D10020C04308E005A806003200290000
S1131100144800F003F90400200001B0039970BCF6
S113111004B0084701B50A480078002802D100202D
S1131120C04307E00122694605484068044B9B68B8
S11311309847012002BD0000FFFFF7FFFFFFFBFF00
S113114024F0FF1F051A0000251A0000791D000075
S1131150B51D000015110000F7B504001F00089D1F
S1131160019806000298864207DAE4B22000A847F4
S11311703868401C3860761CF4E7F7BDFFB58FB0C3
S1131180002005000F98040000202070641C1198B2
S113119000284ED0109803C808AA03C2083A08A829
S11311A003C8002906D1002804D1302020706D1C0A
S11311B02800A9E008A803C8002902D1002800D10A
S11311C0A1E008A803C8129AD31700F063FE0CAA82
S11311D003C2083A08A803C8009001910CA803C8E8
S11311E0129AD31700F0AAFE009A019B121A8B419F
S11311F016001F00002F0FDC01DB002E0CD204A808
S1131200C0C0083804A803C8C043C9430022313011
S1131210514106000F0002E00020303647410CA87F
S113122003C808AA03C2083A30002070641C6D1C6D
S1131230C0E7109803C806AA03C2083A06A803C860
S1131240002906D1002804D1302020706D1C28000C
S11312505AE006A803C8002901D1002853D006A8E3
S113126003C8129AD31700F034FE0AAA03C2083A3C
S113127004AA029206A803C8009001910AA803C810
S1131280129AD31700F05AFE02000B00009801993D
S1131290801A9941029A03C2083A04A803C8002993
S11312A00BD801D30A2808D204AA04A803C800232F
S11312B03030594103C2083A1AE018A800780028CF
S11312C002D04122002301E06122002304A88446C5
S11312D004A803C8009001911000190000220A38E4
S11312E09141009A019B80185941624603C2083A11
S11312F00AA803C806AA03C2083A04A803C82070AF
S1131300641C6D1CA5E7280013B0F0BDF3B599B0BB
S11313101500002007900027002003900020694654
S11313204872002000210CAA03C2083A1A9804004B
S1131330207801900198002800D178E201982528AE
S113134006D00198199988470398401C03906CE2D1
S113135001206946087200200600002006900698C5
S1131360002824D1641C2078202810D0232816D0EB
S11313702B2808D02D2802D030280CD013E03000C0
S113138001260643EBE7300002260643E7E7300078
S113139004260643E3E7300008260643DFE730006F
S11313A010260643DBE7641E01200690D7E70020E1
S11313B00490002006900698002814D1641C20781C
S11313C00190019830280ADB01983A2807DA04983A
S11313D00A2148430199303940180490EBE7641E10
S11313E001200690E7E706200A90641C20782E2846
S11313F01BD100200A90002006900698002815D1E1
S1131400641C20780190019830280ADB01983A285E
S113141007DA0A980A2148430199303940180A909A
S1131420EBE7641E01200690E7E7641E641C207845
S1131430682802D06C280DD01AE0641C2078682833
S113144004D0300040260643641E02E0300020260B
S113145006430EE0641C20786C2804D030008026FB
S11314600643641E03E0300080267600064300E055
S1131470641E641C20780190019864281BD0019894
S1131480692818D00198662815D00198462812D0EA
S1131490019878280FD0019858280CD001986F280B
S11314A009D00198622806D00198702803D00198C9
S11314B0752800D074E10198642802D00198692845
S11314C072D1F00509D5ED1D0720854303CD083DF4
S11314D008350EAA03C2083A05E028682D1DC11775
S11314E00EAA03C2083A6846007A00900A23012231
S11314F00EA910A8FFF742FE070010A8C019079014
S11315000EA803C8002906DC01DB002803D22D2025
S113151005907F1C0DE0B00703D52B2005907F1CA0
S113152007E0700703D5202005907F1C01E0002010
S1131530059000200890300715D50598002805D09F
S11315400598199988470398401C03900120089036
S11315501998009003AB049A39003020FFF7FCFD82
S11315600498070014E0F00712D41998009003AB14
S1131570049A39002020FFF7EFFD0598002805D0D4
S11315800598199988470398401C039001200890F6
S11315900898002808D10598002805D005981999BD
S11315A088470398401C03900198582802D001985A
S11315B078287BD10198782802D1002069460872E6
S11315C0F00509D5ED1D0720854303CD083D0835F9
S11315D00CAA03C2083A05E028682D1D00210CAAB4
S11315E003C2083A6846007A0090102300220CA92E
S11315F010A8FFF7C3FD070010A8C019079000202A
S1131600089030071DD5F00610D530201999884769
S11316106846007A002801D0582000E07820199903
S113162088470398801C0390012008901998009023
S113163003AB049A39003020FFF78EFD04980700AD
S11316401FE0F0071DD4F00600D5BF1C19980090C8
S113165003AB049A39002020FFF77EFDF00610D575
S11316603020199988476846007A002801D058200C
S113167000E07820199988470398801C0390012082
S11316800890F00612D5089800280FD13020199937
S113169088476846007A002801D0582000E0782066
S11316A0199988470398801C0390BF1C01986F28E0
S11316B008D00198622805D00198702802D00198BA
S11316C0752850D1F00509D5ED1D0720854303CDBC
S11316D0083D08350CAA03C2083A05E028682D1D08
S11316E000210CAA03C2083A019862280AD06F2884
S11316F004D070280AD075280CD00FE00820694661
S113170048720BE002206946487207E010206946DF
S1131710487203E00A2069464872FFE76846007A87
S113172000906846437A00220CA910A8FFF726FD12
S1131730070010A8C019079030070AD5199800901F
S113174003AB049A39003020FFF706FD0498070024
S113175009E0F00707D41998009003AB049A390004
S11317602020FFF7F9FC079800280ED0079800788E
S113177000280AD007980078199988470798401ECE
S113178007900398401C0390F0E7F0074DD5199893
S1131790009003AB049A39002020FFF7DDFC44E0FD
S11317A0019863280AD128682D1DC0B20B900B98AC
S11317B0199988470398401C039036E001987328D0
S11317C02DD128682D1D0990099800282DD009983D
S11317D000F0CDFB0700F00707D41998009003AB85
S11317E0049A39002020FFF7B7FC099800780028F4
S11317F00AD009980078199988470998401C0990DB
S11318000398401C0390F0E7F0070ED51998009058
S113181003AB049A39002020FFF79EFC05E00198F1
S1131820199988470398401C0390641C80E5039829
S11318301BB0F0BD7047FEE7010C684A89180A68BE
S11318400123834013430B60704770B506000325E2
S113185000200400AC4207D261480421614340588F
S1131860B04201D0641CF5E7AC4206D3A9225D491D
S11318705D48FFF701FBC046C046200070BDF4B5CB
S113188084B006000D00002D06D1D42255495B48D2
S1131890FFF7F2FAC046C0462868002806D1D522D0
S11318A050495748FFF7E8FAC046C04600270024CD
S11318B0002001900498296810225143FFF704FB8B
S11318C00700BFB2002F01D10120070000200090C3
S11318D00498022148432968FFF7F6FABFB2202191
S11318E07943401A69460881049802214843BFB2EB
S11318F0202179436A4612898918FFF7E5FA009096
S113190028680099884204D200982968401A0190F6
S113191003E028680099401A019028686421FFF7C1
S1131920D3FA032148430199884201D23C483CE060
S11319303000FFF78AFF5349042250430858FFF749
S11319407BFFF078F3210140F1703078E021014011
S1131950380080B2000A0843307038007070B17AE1
S1131960E020084069460989C906C90E0143B172DD
S1131970B078EC2101400C002879002804D0210023
S11319802879102404430C43B470F0780400687977
S1131990002802D0200008240443A879002802D09B
S11319A0200004240443F470002005B0F0BD10B5F9
S11319B00400002C07D1FF225E320A490F48FFF7CA
S11319C05BFAC046C046E12040022060002020713E
S11319D0002060710020A07110BD00000070044060
S11319E040360000E03000001035000001000A79A4
S11319F0D2B24B791B02134318007047C83600005B
S1131A00A835000000B513005A1E002B06D0037938
S1131A101B06FCD50B78C371491CF4E700BD00001C
S1131A20F5030000F8B507000C001500002C07D1E1
S1131A308F22920014491548FFF71EFAC046C0468B
S1131A402800451E00281BD03879800614D438009D
S1131A50FFF7CCFF0600300701D50D4811E07007F1
S1131A6001D50C480DE0B00701D50B4809E0F0079B
S1131A70EAD5FD20800004E0F8792070641CDFE7DB
S1131A800020F2BD4C360000E0300000D0360000EB
S1131A90F1030000F2030000F3030000010C864A86
S1131AA089180A680123834013430B60704738B5D3
S1131AB0050000200400022C07D280480421614361
S1131AC04058A84201D0641CF5E7022C06D38D22AD
S1131AD07B498A48FFF7D0F9C046C046200032BD92
S1131AE0F5B587B00F00002F06D1E422744984486D
S1131AF0FFF7C2F9C046C0463868002806D1E5227F
S1131B006F498048FFF7B8F9C046C046386804906A
S1131B100020039000206946888004200600212EBE
S1131B203BD2089839687143FFF7CEF90500ADB28E
S1131B30002D01D10120050008983100ADB26943A0
S1131B40FFF7C2F9059005983968401A0290396880
S1131B5000910898ADB22900491C7143FFF7B4F90C
S1131B600099081A029988420CD2396800910898A1
S1131B70ADB22900491C7143FFF7A6F90099081A70
S1131B8002906D1C04980299884204D30298049030
S1131B90039668468580761CC1E738686421FFF7A0
S1131BA093F9032148430499884201D2564880E0BE
S1131BB00798FFF77CFF5549042250430858FFF764
S1131BC06DFF079880685249014007988160079823
S1131BD0006804000398042806D30398082803D255
S1131BE020008024A402044320004A4C04400398AB
S1131BF0401E0106F8204005084020430400640B01
S1131C00640368468088C004C00C204307990860B8
S1131C100798006865490140079801600798806843
S1131C2013218843040020003C79044338790028B8
S1131C3002D02000102404430798846007980068A9
S1131C404C4901400C00F879400380218901084087
S1131C502043079908605648040020008024240685
S1131C6004432000C02424020443B879002804D08B
S1131C7020008024A405044302E020004B4C0440CF
S1131C8007984068204307994860079880680400D3
S1131C90387A002803D02000802424030443787A6F
S1131CA0002803D020008024E402044307988460C1
S1131CB0002009B0F0BD000000700440B8360000F8
S1131CC0982E000010B50400002C07D1DD2252002C
S1131CD05A490B48FFF7D0F8C046C046E1204002FD
S1131CE0206000202071002060710020A07100207D
S1131CF0E071002020720020607210BD14330000D7
S1131D00B03600009035000021050000C036000008
S1131D10FFFFF3FFFFFFFFE001004A681000704778
S1131D20F8B505000C0068680600760076083000F7
S1131D3080263606264006433000414E06403000D9
S1131D401B4E2640064330003E4E06403000C0265F
S1131D503602264006436E602800FFF7DDFF204070
S1131D60002802D03A48070001E0002007003800AC
S1131D70F2BD0000FFDFFFFF70B506000C00150088
S1131D80002C06D1304A2D493048FFF775F8C0467B
S1131D90C0462800451E002806D070680002FCD505
S1131DA02078F060641CF4E770BD0000FFFFFFDFE3
S1131DB000001F40F8B507000C001500002C07D1E7
S1131DC0A22292001D492148FFF756F8C046C0469A
S1131DD02800451E00282FD07868800228D43800B7
S1131DE0FFF79AFF0600300306D580210903380067
S1131DF0FFF796FF174820E0700306D58021C9023B
S1131E003800FFF78DFF144817E0B00306D5802192
S1131E1089023800FFF784FF10480EE0F003DBD599
S1131E20802149023800FFF77BFFA420C00004E0B2
S1131E30F8682070641CCBE70020F2BD982E0000E7
S1131E40FFFFE0BFFF3FFFFF79020000A83600005C
S1131E501A0500001D0500001E0500001F050000F6
S1131E6080B5084801680848084A1268904701BDCF
S1131E7080B5044841680648044A1268904701BD89
S1131E80000000006CF0FF1F0040054074F0FF1FCD
S1131E900050054030B4DC0F03D05B42524200D204
S1131EA05B1E0D106C4013D0F446002502D349424A
S1131EB04042A94100F00DF8E40703D35B425242CB
S1131EC0AB41244202D549424042A94130BC60475B
S1131ED030BC124224D0994228D970B500251B4247
S1131EE002D00C00002109E00024012649186441B5
S1131EF0944200D3A41A7641F8D33100012601E0BC
S1131F00764109D2001864416D41A41A9D41F7D26B
S1131F10A4185D41B619F5D3300022002B0070BD22
S1131F201B42D8D108B500F02BF808BD01D190426E
S1131F30D3D202000B0000210020704730B4434389
S1131F4051435D18010C0C00130C5C432D1980B235
S1131F50434392B251430024C918644124040B043E
S1131F60090C09195043C018694130BC704701007D
S1131F7000E0491C0A78002AFBD1081A7047FEE7E2
S1131F807047FEE7010C914A89180A6801238340CF
S1131F9013430B60704710B504002000FEF7ACFC3F
S1131FA010BDF8B504000F0015003878202802D0C1
S1131FB0402803D005E00120060004E020200600AC
S1131FC001E002200600002D01D03000A847F1BD39
S1131FD0F2B5040017001D003800002805D094490C
S1131FE0401A08D0801E03D008E00120060007E054
S1131FF01020060004E04020060001E00220060054
S1132000002D01D03000A847F1BD8A480068704710
S113201089480068704702008A6000207047010008
S113202000207047F1B588B00F0016001D000E9C0B
S11320306068007F002802D00120C04344E0A36808
S11320407E4A616820680068FEF76EFC089802A961
S11320500871002002A9487100200490002002A900
S11320600873069707960020029020680068C078DD
S1132070800603D50298022101430291EDB2002D9E
S113208003D0029804210143029102AA61682068E6
S11320900068FEF76FFC01900198002805D0A9495B
S11320A0401A05D0001F07D00AE0002000900AE083
S11320B00120C043009006E00220C043009002E0EB
S11320C00020C0430090009809B0F0BDF1B588B07D
S11320D00F0016001D000E9C6068007F002802D0CF
S11320E00120C04344E0A368544A61682068006842
S11320F0FEF71AFC089802A90871012002A9487188
S113210000200490002002A9087306970796002077
S1132110029020680068C078800603D502980221E6
S113212001430291EDB2002D03D002980421014332
S1132130029102AA616820680068FEF71BFC019006
S11321400198002805D07F49401A05D0001F07D008
S11321500AE0002000900AE00120C043009006E05D
S11321600220C043009002E00020C0430090009889
S113217009B0F0BDF8B506000D001400A368A14A2B
S1132180616820680068FEF7BDFC20226168206851
S11321900068FEF7E5FC0090606886606068C560D2
S11321A00020616848610098002803D0654988428E
S11321B003D006E00020070006E00120C04307002A
S11321C002E00020C04307003800F2BD0070044064
S11321D0F8B506000D0014008020216809684871D4
S11321E0A368884A616820680068FEF78BFC202297
S11321F0616820680068FEF7B3FC00906068866040
S11322006068C5600020616848610098002803D0B8
S11322104C49884203D006E00020070006E0012074
S1132220C043070002E00020C04307003800F2BDAD
S11322304F040000383700003C370000D11F000075
S113224000B501004A685269002A03D04A685269FD
S1132250100006E04A6818324B681433D21A921000
S1132260100000BDF8B506000D00140000206946FA
S11322700870012E06D062D3032E28D009D3042E71
S113228028D05CE02800400021680968087000201C
S113229057E0012D04D00CD3032D07D003D308E05D
S11322A05948070008E05948070005E05848070066
S11322B002E00320C04344E02068406880470200F5
S11322C0390020680068FEF762FA002039E0032034
S11322D0C04336E020680068807880060DD56168C8
S11322E020680068FEF772FB0020616888610020A6
S11322F061680861002061684861606800780028AE
S11323001BD020680068C078400716D42068006895
S11323108078082101432068006881706068007833
S11323200028FBD1616820680068FEF748FC0020A3
S11323306168886000206168C860002001E00320B3
S1132340C043F2BD4C04000038B504000D00E4B2F3
S1132350002C03D0022C0FD00BD31DE02A00002147
S11323600420FFF77FFF28680068FEF7D9F90020F2
S113237014E00320C04311E028680068FEF790F8D9
S11323802449042250430858FFF7FCFD80202968A3
S113239009688870002001E00320C04332BD38B5CD
S11323A0040020680068FFF7F6FD010008008006BD
S11323B0C00F0500206800688078800608D50420D6
S11323C08543280004250D400543280002250543C4
S11323D06068007800280DD0042085438808020036
S11323E0D207D20F01205040C0B28000284305001C
S11323F00220854310208543280010250D40054305
S1132400280032BDA31F0000A0860100801A060028
S113241040420F009836000010B5040000F08BF81D
S11324202C492000FFF7F7FD10BD000080B500F037
S113243091F82848FFF7F3FD02BD10B504002549C3
S11324402000C0B2FFF780FF10BDF8B504000F00F4
S113245016001D001F4800902B00DBB2320039002B
S11324602000FFF7DFFDF2BDF8B504000F001600F1
S11324701D00184800902B00DBB232003900200008
S1132480FFF724FEF2BD38B504000D00114A2900FF
S11324902000FFF76FFE32BD38B504000D000D4A71
S11324A029002000FFF794FE32BD000080B50948E2
S11324B0FFF7C6FE02BD38B504000D00054A290029
S11324C02000FFF7CFFE32BD80B50248FFF767FF5B
S11324D002BD000000F0FF1F010C264A89180A689B
S11324E00123834013430B60704730B404234B43F0
S11324F0C358214C1C40D2B21302E025ED001D400C
S1132500254304234B43C55030BC704780B51B485A
S1132510FFF7E2FF022201211948FFF7E6FF02223A
S113252002211748FFF7E1FF164800680721884396
S11325301449086001BD80B51348FFF7CDFF02229E
S113254000211248FFF7D1FF022201210F48FFF7B3
S1132550CCFF01BD80B50C48FFF7BEFF002200216F
S11325600A48FFF7C2FF002201210848FFF7BDFF18
S113257001BD000000700440FFF8FFFF090038109F
S113258000900440108004400A00381000A0044069
S1132590684909685E4A0A408104C0231B030B4052
S11325A0134364490B60704700B5634800788007A3
S11325B007D462480078C0B280088007800F0128E1
S11325C00AD15F4868490978C9B20A00D207D20F14
S11325D004214A43805800E0002000BD80B56348D0
S11325E0007800060DD57C480068002806D18422B6
S11325F05F496048FEF740FCC046C0467648006824
S113260000E0002002BD10B54A480068800C800735
S1132610800F002804D002280DD003281AD01DE012
S1132620FFF7DCFF80210902884202D180242402C2
S113263000E0002414E06A480068002806D19822CB
S11326404B496648FEF718FCC046C046644800681B
S1132650040005E0FA208000040001E000200400EA
S1132660200010BD38B50500EDB22800002801286F
S11326700FD9801E17D0801E15D0C01E27D0401E33
S113268029D0001F2BD0401F01282CD9801E2ED00A
S113269031E000F071F853490968090F491CFEF74D
S11326A013FC040029E000F067F84E490968090F9B
S11326B0491CFEF709FC040020004A490968090C7A
S11326C04907490F491CFEF7FFFB040015E0FFF71B
S11326D09AFF040011E0FFF781FF04000DE000F011
S11326E019F8040009E000F02DF8040005E0FA20D0
S11326F08000040001E000200400200032BD10B579
S113270004006068374908602078FFF741FF10BD76
S1132710FFFFF3FF38B566480078C0B240084407AD
S1132720640F6448007845076D0FFFF73DFF61199A
S1132730C84032BD007004400040064006400640D8
S11327407036000000B55B480078000607D45A488C
S11327500078C0B280088007800F002801D1574854
S113276000E0002000BD000001400640005006408B
S1132770102F00002836000010B54F480078C0B272
S113278080088007800F002803D002280FD003D3CD
S11327901DE04A4804001CE0FFF706FF444909789D
S11327A0C9B249084907490FC840040011E00A4862
S11327B00068002807D1FF222E3241494148FEF724
S11327C05BFBC046C04604480068040001E00020EA
S11327D00400200010BD00001CF0FF1FE8350000BD
S11327E020F0FF1F4480044010B50400002C07D1E2
S11327F0AC22520032493548FEF73EFBC046C04683
S11328002D480078C0B280088007800F012819D1B4
S11328102078012816D12C480078C0B20100C907DD
S1132820C90FA07881420DD0294800788006800E17
S11328302749087020480078C0B280088007800FBC
S11328400028F7D1E07840000E21014018480170BB
S11328506079C00121794907490F01431548017086
S113286019480078FE210140A0780200D207D20F57
S11328700A431548027020788001617801431448A6
S1132880017011480078400706D52078022803D14A
S1132890094800788007FBD5207807490978C9B230
S11328A089088907890F8842F6D1002010BD0000ED
S11328B0084006401840064006400640006CDC0212
S11328C0102F00002836000001400640F8350000B3
S11328D00040064000B5012801D08049086001216C
S11328E07F4A117000BDFEB506000C001500684655
S11328F0002101806846007A6946087009A80078BA
S113290000285CD000207649227A8854012073493B
S1132910227A04235A438850012301226946ADB226
S113292028007769B8470190019800280ED16C48B7
S1132930217A405C0028FAD06848217A0422514365
S11329404058012802D00020C0436BE000206449B5
S1132950227A885401206149227A04235A438850F8
S1132960002301226846411CADB22800B769B8476C
S113297001900198002817D15948217A405C002819
S113298008D12068002803D0606821688847F3E7ED
S113299000BFF1E75148217A0422514340580128ED
S11329A002D00020C0433DE06846407809A9097878
S11329B0884308A9097801436846417003E008A8E0
S11329C000786946487000204549227A88540120DD
S11329D04249227A04235A4388500AA803780222DF
S11329E06946ADB228007769B8470190019800287C
S11329F017D13B48217A405C002808D12068002880
S1132A0003D0606821688847F3E700BFF1E73348E3
S1132A10217A042251434058012802D00020C043A7
S1132A2001900198FEBDF8B582B006000C001500B7
S1132A3000202B49227A885401202849227A042331
S1132A405A4388500123012202A9ADB228007769B4
S1132A50B8470090009800280ED12148217A405CA4
S1132A600028FAD01D48217A0422514340580128F5
S1132A7002D00020C0432EE000201949227A885455
S1132A8001201649227A04235A438850002308A8B7
S1132A9002780999ADB22800B769B8470090009848
S1132AA0002817D10E48217A405C002808D12068FC
S1132AB0002803D0606821688847F3E700BFF1E786
S1132AC00648217A042251434058012802D00020AC
S1132AD0C04300900098FEBD0000000010F0FF1FEE
S1132AE088F5FF1F30B587B02B4CFFF70FFD00F0C2
S1132AF06BF800F081F800F099F82848FEF7F2FA34
S1132B002748A16888470500002D05D02548FEF711
S1132B10E9FA0020C0433CE002202169884705000F
S1132B20002D05D02048FEF7DDFA0020C04330E038
S1132B3002210220A26A90470500002D05D01B48FF
S1132B40FEF7D0FA0020C04323E0C52000906023A4
S1132B500022114901A800F07FF80500002D05D0DE
S1132B601348FEF7BFFA0020C04312E01148FEF7F5
S1132B70B9FA01A800F0A3F80500002D05D00E480D
S1132B80FEF7B0FA0020C04303E00C48FEF7AAFAAF
S1132B90002007B030BD00BF38320000B83100005B
S1132BA0D528000094340000043400003C330000B5
S1132BB028340000643300008C330000B434000077
S1132BC0084809490860704780B5FFF7F9FF0848CD
S1132BD0FFF70AFE0748FFF792FD0548806903499D
S1132BE0086001BD000003104480044018F0FF1F7A
S1132BF0F4340000FC340000052003490860034855
S1132C00034908607047000010E000E0FFFFFF0088
S1132C1014E000E00D4909680D4A0A408106C0230A
S1132C201B050B40134309490B60704710B5012085
S1132C30FFF7F0FFFFF786FD040023000222E121E5
S1132C4049020448FEF7FAF910BD0000048004406C
S1132C50FFFFFFF300400540F4B584B004000E000C
S1132C601D000A9F002C01D0002E01D1012024E078
S1132C706846007C2072002060600020206002A86A
S1132C800190012000900C232A0092B22100300010
S1132C90FFF7C9FE03900398002805D13800694660
S1132CA0097AC0B2884203D000202074032004E0D3
S1132CB0E660658201202074002005B0F0BD3EB5B9
S1132CC00400002C01D1012018E0207C002801D14F
S1132CD0032013E0002002900420019004200090BF
S1132CE02623628A2100E068FFF7FDFD0500002D20
S1132CF001D0042002E00020207400203EBDFEE745
S1132D0038B504000D00E078C00608D51C4804213D
S1132D106943415820001B4A1268904707E018484D
S1132D200421694341582000144A1268904731BD78
S1132D3080B513480068002807D1F92292000E4993
S1132D401148FEF799F8C046C04600210F48FFF726
S1132D50D7FF01BD80B50A484068002807D1FB228F
S1132D60920005490A48FEF787F8C046C04601218B
S1132D700848FFF7C5FF01BD6C30000084F0FF1F59
S1132D8078F0FF1F80F0FF1F083600000060074046
S1132D9018360000007007401400160018001A00CE
S1132DA01C001E00220028001C0020002400280013
S1132DB02C00300038004400300038004000480047
S1132DC050005800680080005000600070008000CF
S1132DD09000A000C000F000A000C000E0000001CE
S1132DE0200140018001E00140018001C001000296
S1132DF0400280020003C003800200038003000439
S1132E00800400050006800700050006000700088E
S1132E100009000A000C000F38B50500002004006A
S1132E20052C07D21848042161434058A84201D018
S1132E30641CF5E7052C06D3442214491448FEF714
S1132E401BF8C046C046200032BD70B50400200007
S1132E50FFF7E2FF05000F48EDB204216943405833
S1132E600600A020305870BDF8B505000C002800FD
S1132E70FFF7D2FF07000748FFB204217943405807
S1132E800600A0203450F1BDD4350000842F00008A
S1132E90C4320000C0350000433A5C576F726B7354
S1132EA0706163655C4769745265706F7369746FB0
S1132EB0726965735C537072696E742D3230313689
S1132EC02E355C6472697665726578616D706C65C7
S1132ED0735C70726F6A656374735C4652444D2D03
S1132EE04B4C32375A5C646576696365735C4D4B51
S1132EF04C32375A3634345C647269766572735C6A
S1132F0066736C5F6C70756172742E6300000000F0
S1132F10433A5C576F726B73706163655C476974A5
S1132F205265706F7369746F726965735C53707204
S1132F30696E742D323031362E355C647269766573
S1132F40726578616D706C65735C70726F6A6563CD
S1132F5074735C4652444D2D4B4C32375A5C646555
S1132F6076696365735C4D4B4C32375A3634345C46
S1132F70647269766572735C66736C5F636C6F63AD
S1132F806B2E6300433A5C576F726B7370616365B9
S1132F905C4769745265706F7369746F72696573A5
S1132FA05C537072696E742D323031362E355C6428
S1132FB072697665726578616D706C65735C707248
S1132FC06F6A656374735C4652444D2D4B4C3237C3
S1132FD05A5C646576696365735C4D4B4C32375A51
S1132FE03634345C647269766572735C66736C5FE4
S1132FF06770696F2E630000433A5C576F726B739E
S1133000706163655C4769745265706F7369746F4E
S1133010726965735C537072696E742D3230313627
S11330202E355C6472697665726578616D706C6565
S1133030735C70726F6A656374735C4652444D2DA1
S11330404B4C32375A5C646576696365735C4D4BEF
S11330504C32375A3634345C647269766572735C08
S113306066736C5F6932632E63000000433A5C57F9
S11330706F726B73706163655C4769745265706FDE
S11330807369746F726965735C537072696E742DC1
S1133090323031362E355C647269766572657861DA
S11330A06D706C65735C70726F6A656374735C4693
S11330B052444D2D4B4C32375A5C646576696365D6
S11330C0735C4D4B4C32375A3634345C64726976D7
S11330D06572735C66736C5F7370692E63000000C5
S11330E0433A5C576F726B73706163655C476974D4
S11330F05265706F7369746F726965735C53707233
S1133100696E742D323031362E355C6472697665A1
S1133110726578616D706C65735C70726F6A6563FB
S113312074735C4652444D2D4B4C32375A5C646583
S113313076696365735C4D4B4C32375A3634345C74
S1133140647269766572735C66736C5F75617274C0
S11331502E630000F1B50F000098FFF776FE06001D
S11331600024E4B2202C23DA3000E040C0071DD54F
S11331701048FFB28021490079434018E4B2082185
S1133180614340184568280000280FD00948FFB261
S11331908021490079434018E4B208216143405832
S11331A0A8470121A1400098FFF75EFE641CD8E700
S11331B0F1BD000088F0FF1F0D0A20495353444B12
S11331C02046585051333131352073656E736F7218
S11331D020647269766572206578616D706C652013
S11331E064656D6F6E7374726174696F6E20666F5F
S11331F0722052657365742E200D0A0070B401218B
S1133200002213E00468001D0C4202D04D466D1EDE
S113321064192260241D1B1F042BFAD225009E076B
S113322001D52280AD1C0B4000D02A700368001D1C
S1133230002BE7D170BC70470B2000001120000068
S1133240192400002D2400003B2400004B2400001E
S1133250692400008724000099240000AD240000A4
S1133260B7240000C924000030B401210268001D05
S1133270002A0FD00368C318446808300C4202D0F7
S11332804D466D1E64191D6825601B1D241D121FEB
S1133290ECD0F8E730BC70474153534552542045B5
S11332A052524F52202220257320223A2066696C04
S11332B0652022257322204C696E65202225642214
S11332C0200A0000696E7374616E6365203C2046B9
S11332D0534C5F464541545552455F534F435F47F6
S11332E050494F5F434F554E54000000696E73744C
S11332F0616E6365203C2046534C5F4645415455FE
S113330052455F534F435F4932435F434F554E54D9
S113331000000000696E7374616E6365203C204692
S1133320534C5F464541545552455F534F435F4CA0
S113333050554152545F434F554E54000D0A204995
S1133340324320436F6E74726F6C204D6F6465203E
S113335073657474696E67204661696C65640D0AEF
S1133360000000000D0A205375636365737366756E
S11333706C6C7920496E6974696C69617A65642042
S113338053656E736F722E200D0A00000D0A2053D0
S1133390656E736F722044652D496E697469616C42
S11333A0697A6174696F6E204661696C65640D0A9F
S11333B00000000000B507480078000705D505485F
S11333C00078082101430348017000200249086085
S11333D000BD000002D007400081044010B5074939
S11333E079441831064C7C44163404E0081D0A68FC
S11333F0891888470100A142F8D110BD740000006B
S1133400940000000D0A2049324320506F77657202
S1133410204D6F64652073657474696E672046611E
S1133420696C65640D0A00000D0A2053656E736FA4
S11334307220496E697469616C697A6174696F6E2E
S1133440204661696C65640D0A00000072B6044888
S1133450044901600448804762B6044800470000FC
S113346008ED00E000000000B5330000593600000C
S11334708DFDFFFF700500001CF0FF1F0000000021
S1133480E9FDFFFF1C000000A400000000F0FF1F86
S1133490000000000D0A2049324320496E69746916
S11334A0616C697A6174696F6E204661696C6564E8
S11334B00D0A00000D0A2053656E736F7220526569
S11334C0736574205375636365737366756C2E201E
S11334D00D0A000080B500210448FFF73BFE01BD42
S11334E080B502210248FFF735FE01BD00F00F4010
S11334F080F00F4000000100000100000000000007
S1133500000001000080000000048000006CDC0268
S1133510696E7374616E6365203C207561727441D9
S113352072726179436F756E74000000A0360000FA
S113353044F0FF1F00000000000000000100000034
S11335400000000000127A0000F00BF8002801D0FF
S1133550FFF744FF0020C046C046FFF7C3FA00F05F
S113356002F80120704780B500F002F801BDFEE7C3
S11335700746384600F002F8FBE7000080B5C04675
S1133580C046024A11001820ABBEFBE72600020029
S1133590636F6E6669672D3E62617564526174651E
S11335A05F42707300000000636F6E6669672D3EB2
S11335B062617564526174655F427073000000005B
S11335C00090044000A0044000B0044000C0044047
S11335D000D0044000F00F4040F00F4080F00F4056
S11335E0C0F00F4000F10F40675F7874616C3332B4
S11335F04672657100000000746172676574436F00
S11336006E66696700000000735F73706948616EDD
S1133610646C655B305D0000735F73706948616E54
S1133620646C655B315D0000675F7874616C304683
S11336307265710069326348616E646C65000000F4
S1133640000000000000000000C006400000000070
S1133650000000000C003410C046C046C046C046FE
S1133660FFF772FF80B50020FEF7FCFF02BD0000EB
S113367080841E0000127A007866657200000000E3
S113368068616E646C65000000600640007006406E
S113369006003410070034100600341007003410FC
S11336A0006006406536000064617461000000003B
S11336B0636F6E6669670000004005400050054076
S11336C01400381015003810636F6E6669670000C7
S11336D06461746100000000004800473137000055
S11336E000480047313700000048004731370000E8
S11336F0004800473137000000480047370E0000FB
S113370000480047450E000000480047312D0000E6
S113371000480047552D000000480047611E000086
S113372000480047711E0000004800473137000080
S11337300048004731370000020200020000000088
S90336596D
