S02300004B4C32375A2D41474D5030332D4D504C333131352D4E4F524D414C2E737265631C
S113000000300020913700009F10000067180000A6
S113001000000000000000000000000000000000DC
S1130020000000000000000000000000DB1A0000D7
S113003000000000000000001F21000049390000FA
S1130040213A0000293A0000313A0000393A000010
S1130050793A0000793A0000793A0000793A0000D0
S1130060413A0000493A0000513A0000593A000070
S1130070613A0000693A0000713A0000793A0000E0
S1130080793A0000793A0000793A0000793A0000A0
S1130090793A0000793A0000793A0000793A000090
S11300A0793A0000793A0000793A0000793A000080
S11300B0793A0000793A00006D3800007938000080
S1130400FFFFFFFFFFFFFFFFFFFFFFFFFE3DFFFFBB
S113041000B540B2002805D40121C206D20E914095
S11304205C4A116000BD010C5B4A89180A6801230B
S113043083409A430A60704710B5040064B27F2079
S1130440C043844201D1012004E0200040B2FFF700
S1130450DFFF002010BD00B5C9B2002904D08278A6
S113046080231343837003E082785206520E827015
S113047000BD10B50400200000F057FA10BD00B50F
S1130480CA0403D582790B0A134383714A0403D542
S113049082790B0A134383710A00C27000BD38B518
S11304A005000C0021002800FFF7E9FF31BD38B535
S11304B005000024022C07D2384804216143405827
S11304C0A84201D0641CF5E7022C06D3B8223449B3
S11304D0344800F0E3FC00BF00BF200032BDF8B593
S11304E005000C0017000026684679790170200089
S11304F03900182200F0E0FC7869A061207B002814
S113050005D07879012802D10020694608700120BD
S1130510207794492800FFF7B2FF2078C00716D54A
S1130520207B002802D00220207708E0684600786B
S1130530002802D10320207701E004201AE0E878A3
S11305400006FCD52100280000F09CFA11E0207878
S1130550800707D5684602782179280000F09EF9C3
S1130560060006E0684602782179280000F076F952
S113057006003000F2BD00B502000020CB0604D511
S11305801023D370804B180003E0CB0701D57F4BB9
S1130590180000BD00E100E000700440C83900000C
S11305A024350000C0390000F4B584B005000C0007
S11305B000200290E878019000200499087000203F
S11305C069460870207F032802D16069002805D09D
S11305D0207F052804D16069012801D1012700E0AA
S11305E0002768460078401C694608700199280075
S11305F0FFF7C1FF06006548864204D1FFB2002F11
S113060001D000200600207F012813D10198C007E3
S113061002D5914806000DE0207B002802D002207C
S1130620207707E06079002802D10320207701E0D9
S113063004202077002E01D0300079E0207F0228AA
S113064006D074D304283CD02AD305284AD06EE0BF
S1130650207B002809D0207B401E2073A068217BCA
S113066008225143C840287119E0607900280ED14E
S1130670032020776069002811D020690078287150
S11306802069401C20616069401E606107E001220E
S11306902179280000F002F906000420207746E0C2
S11306A06069002809D02069007828712069401CFD
S11306B020616069401E606102E0012004990870B5
S11306C035E0A878E7210140A9706069012803D1C9
S11306D0A87808210143A970287969460870052083
S11306E0207724E06069411E616100281ED06069A2
S11306F000280ED10120049908702078400704D402
S1130700280000F007F9060003E0A878102101434F
S1130710A9706069012803D1A87808210143A97050
S11307202069297901702069401C2061FFE73000AD
S113073005B0F0BD38B505000C00E878C00602D459
S1130740A878800605D5210028006F4A12689047D2
S113075004E0210028006D4A12689047BFF34F8FD0
S113076031BD00001250000010B50400002120002B
S1130770FFF771FE2000FFF79AFE654904225043FB
S11307800858FFF750FE10BD4F0400004E0400004F
S113079010B54B0603D5837840241C4384708B0624
S11307A006D58379AF241C40202323431A00827189
S11307B010BD00B54A0603D58278BF231340837069
S11307C08A0603D582798F231340837100BDF5B562
S11307D085B00D000020C04300900020039000204D
S11307E002900027FFB2032F2BD20098002828D0B4
S11307F00120B840049000200400E4B2402C1ED232
S113080006980499524AE4B202236343D25A5143EC
S113081000F06CFB01900198A84202D201982E1AB4
S113082001E00198461B0098864206D2FFB2039766
S1130830E4B202940096002E01D0641CDDE77F1C14
S1130840D0E70398800102998906890E014305982F
S1130850417007B0F0BD000051040000F8B5040079
S11308600F0015000026200000F05FF80100880644
S113087002D5384806000FE0A07830220243A27067
S1130880207BC007FCD5EDB2012D01D1012000E091
S113089000207A00104320713000F2BDF8B5040046
S11308A00F0015000026200000F03FF8010006228A
S11308B0880605D5A078800602D42648060021E0E3
S11308C0684663780370684600788006800E60701E
S11308D0A07814230343A370684600786070100066
S11308E0421EC0B2002801D000BFF8E7207BC00739
S11308F0FCD5EDB2012D01D1012000E000207B00E8
S1130900184320713000F2BD3CF0FF1F40F0FF1F80
S1130910D039000000B5010000208A78C7231340B5
S11309208B70CA789206FCD400BD00B50100C8786B
S11309308A79520603D502008020C00110438A79C7
S1130940D20603D5020080204001104300BD000000
S11309506C3000004C040000FDB50C00002C06D1E6
S11309606C4A4649464800F099FA00BF00BF009817
S1130970FFF79DFD050028270026320039002000DE
S113098000F00CFB01982062029860626248042126
S11309906943445061486249086062484057FFF720
S11309A04BFDF7BD0000F8B507000C001600002C45
S11309B007D19C22D2003149314800F06FFA00BFC0
S11309C000BF002E06D1584A2C492D4800F066FA83
S11309D000BF00BF00200090207F002801D0534DAD
S11309E00BE0320021003800FFF779FD0500002DEF
S11309F003D140213800FFF7CBFE2800F2BD38B503
S1130A0004000D00002D06D1494A1C491C4800F081
S1130A1045FA00BF00BF00206946087068460078A8
S1130A20401C6946087040212000FFF7C2FE0020E8
S1130A302877A078800601D43C481DE06879012815
S1130A4010D1A07808210143A170E0788007FCD57B
S1130A500220E070A078C7210140A1702079694686
S1130A60087008E0E0788007FCD50220E070A078E8
S1130A70C7210140A170002032BD000024350000D0
S1130A80C0390000FEB504000E00002E06D13F4A16
S1130A9028493D4800F002FA00BF00BF0196002734
S1130AA00220E0706A4601992000FFF77DFD0500F1
S1130AB0684600782843002827D00198007840072A
S1130AC005D53348854202D0114885420AD1A07821
S1130AD0800607D52000FFF71DFF002802D08A20DA
S1130AE0C000050000200199087740212000FFF78D
S1130AF060FE0198006A002807D00198436A2A0022
S1130B0001992000019F3F6AB847F7BD000000002B
S1130B1051040000C904000034F0FF1F850A0000DE
S1130B203CF0FF1F9A0F0000E10400004C04000099
S1130B30FB04000024350000FDB50C00002C06D198
S1130B403C4A3D49104800F0A9F900BF00BF009895
S1130B50FFF7ADFC050024270026320039002000F1
S1130B6000F01CFA0198E0610298206233480421E5
S1130B706943445032483349086033484057FFF7CB
S1130B805BFCF7BD00000000C03900005205000006
S1130B904E040000F4B582B005000C00002C06D110
S1130BA02A4A2549224800F079F900BF00BF20787D
S1130BB0002801D026481BE060212800FFF7F9FD3A
S1130BC0142000900026271D32000099380000F000
S1130BD0E5F901202070029846210143A161A6494C
S1130BE02800FFF75CFC60212800FFF7D1FD0020FE
S1130BF0FEBD0000F1B50C00002C06D19F4A0E4941
S1130C009F4800F04BF900BF00BF207800280DD0AA
S1130C1060210098FFF7CDFD14250026271D320022
S1130C202900380000F0BAF900202070F1BD00005E
S1130C30C03900006D0600002435000034F0FF1FA9
S1130C40550C000040F0FF1F9A0F000084060000BE
S1130C504C040000F2B584B005000498002806D1C5
S1130C60884A8949864800F019F900BF00BF00206E
S1130C7069464870049C00206946087068460078FC
S1130C80401C694608702800FFF7F3FB0700261D87
S1130C9078041FD58021C9012800FFF7F0FB02204A
S1130CA0E8702078002812D0202030700020F060F6
S1130CB000202070A06931780140002907D0E06944
S1130CC0002804D0226A31002800E3699847780696
S1130CD000D4C0E0F80418D5802149012800FFF7AA
S1130CE0CEFB0220E87010203070A06931780140FA
S1130CF0002907D0E069002804D0226A31002800C6
S1130D00E3699847780600D4A5E00220E870F80764
S1130D101DD5A878E7210140A97028796946087093
S1130D20E06800286BD0202030705848F060002024
S1130D302070A06931780140002960D0E069002862
S1130D405DD0226A31002800E369984757E07806AD
S1130D5028D50120207001203070780707D5A878A5
S1130D6010210143A9700120694648700CE0A8785D
S1130D70E7210140A970287969460870684600781F
S1130D80002801D140203070A06931780140002949
S1130D9035D0E069002832D0226A31002800E369A6
S1130DA098472CE0380627D5780703D501206946F3
S1130DB0487024E07068002802D0B06800280BD185
S1130DC004203070E069002804D0226A3100280031
S1130DD0E3699847002030612879E16800290ED042
S1130DE0A1684A1CA2600870E168491EE16031698B
S1130DF0491C3161E16802E0287969460870684657
S1130E004078002827D07068002802D0B0680028F5
S1130E100BD102203070E069002804D0226A31002E
S1130E202800E369984700203061E06800280BD06F
S1130E30A068411CA16000782871E068401EE06051
S1130E403069401C306106E0A878E7210140A970B0
S1130E5028796946087005B0F0BD80B50C48016872
S1130E600C48FFF767FC01BD80B5094841680A4892
S1130E70FFF760FC01BD000012500000A506000051
S1130E80C0390000CC060000243500004E040000E8
S1130E9034F0FF1F006006400070064070B5060085
S1130EA00D00140023002A003100024800F0B7F8B6
S1130EB000BEFDE7EC36000070B4103A03D378C9E5
S1130EC0103A78C0FBD2530701D318C918C001D512
S1130ED008C908C0D20704D30B880380891C801C6E
S1130EE0002A01D50B78037070BC70470022030AF6
S1130EF08B420BD203098B4219D243088B422ED268
S1130F00411A00D20146524110467047FF2209029D
S1130F103FD012068B4205D3121209028B4201D331
S1130F201212090203098B4219D300E0090AC3090A
S1130F308B4201D3CB01C01A524183098B4201D3A6
S1130F408B01C01A524143098B4201D34B01C01A91
S1130F50524103098B4201D30B01C01A5241C30809
S1130F608B4201D3CB00C01A524183088B4201D378
S1130F708B00C01A524143088B4201D34B00C01A64
S1130F805241884200D3401A5241CFD20146104602
S1130F90704708B500F082F808BD08091206130A64
S1130FA01A43130C1A4300BF094205D0830705D026
S1130FB00270401C491EF9D170470000130030B480
S1130FC014001500103902D310393CC0FCD2490773
S1130FD000D30CC000D504C0890002D30280801C59
S1130FE0002900D5027030BC704700000022E5E7FC
S1130FF0F8B507000E0014001D00E4B2002C06D161
S1131000692215491548FFF749FF00BF00BF2B00AF
S113101032002100C9B2380000F042F8F2BD0EB42B
S1131020F0B5A2B0060000200090002701A880219E
S1131030FFF7DCFF27AC0A4B01AA2100300000F0C7
S113104021F90500290001A800F03BF822B0049919
S1131050F0BC04B008470000E4310000A8390000E7
S113106065100000F4B506000C001F0000200025E8
S1131070BD4212DA2068401C802805D32168300064
S113108000F01FF800202060684600782168705442
S11310902068401C20606D1CEAE7F1BD7047FEE744
S11310A0F0B583B007000E0015001C0000976846D9
S11310B00671002322002900684600F00FFC00207E
S11310C0FEBD38B504000D00002C07D1FF224032CC
S11310D011491248FFF7E2FE00BF00BF29002000BB
S11310E000F001F832BD70B506000C000025002C9C
S11310F00FD0002E0DD001200500EDB2002D08D038
S113110001222100300000F032FC002801D0002030
S11311100400200070BD000048320000F0390000D7
S1131120FFB58DB000250D9800210170441C0F9867
S1131130002850D00E9803C802AA03C2083A02A895
S113114003C8002906D1002804D1302020706D1C6A
S1131150280095E002A803C8002902D1002800D184
S11311608DE002A803C8109AD31700F041FC0AAA24
S113117003C2083A02A8C0C808380AA803C8109ACB
S1131180D31700F089FC361A8F413000390000294A
S113119010DC01DB00280DD204AA03C2083A08AE11
S11311A004AA0CCAD243DB43002731327B410CC66C
S11311B0083E05E008AA00233030594103C2083A2A
S11311C00AA803C802AA03C2083A08A803C82070E0
S11311D0641C6D1CBEE70E9803C86A4603C2083A35
S11311E0684603C8002906D1002804D130202070A5
S11311F06D1C280044E0684603C8002901D100287A
S11312003DD0684603C8109AD31700F010FC06AA14
S113121003C2083A6846C0C8083806A803C8109A2A
S1131220D31700F039FC361A8F4132003B00002BF3
S113123009D801D30A2A06D204A8002130324B412E
S11312400CC0083810E016A80078002802D041200D
S1131250002101E06120002104AE00270A38B941D1
S11312608018594103C6083E06A803C86A4603C24B
S1131270083A04A803C82070641C6D1CBBE728004E
S113128011B0F0BDFDB59CB00C0000200890002604
S113129000200490002069464873002000210CAA15
S11312A003C2083A1C9D287801900198002800D1B7
S11312B0D6E20198252808D0012301980200D2B271
S11312C004A91D981E9FB847C8E201206946087307
S11312D0002002900020002829D16D1C29782029A3
S11312E012D023291AD02B2909D02D2902D0302934
S11312F00FD018E0029901220A430292EBE7029907
S113130002220A430292E6E7029904220A43029265
S1131310E1E7029908220A430292DCE702991022CB
S11313200A430292D7E76D1E01210800D3E700218A
S1131330059100210B910B9800281BD16D1C287876
S11313400190019830280ADB01983A2807DA0598B9
S11313500A2148430199303940180590EBE7019878
S11313602A2803D12068241D0590E4E76D1E01207E
S11313700B90E0E706200A90002069468873681CF9
S113138001782E2928D100210A9100210B910B9973
S1131390002922D1401C01780191019930290DDBEB
S11313A001993A290ADA0A990A225143019A303AF0
S11313B089180A9101216A469173E8E701992A295B
S11313C006D12168241D0A9101216A469173DEE742
S11313D0401E01210B91DAE7401E401C0178682968
S11313E002D06C290FD01EE0401C0178682905D07A
S11313F0029940220A430292401E03E002992022ED
S11314000A43029210E0401C01786C2905D002992D
S113141080220A430292401E04E002998022520074
S11314200A43029200E0401E451C2878019001986E
S113143064281BD00198692818D00198662815D013
S11314400198462812D0019878280FD0019858287E
S11314500CD001986F2809D00198622806D0019811
S1131460702803D00198752800D08EE10198642873
S113147002D0019869287BD10298C00509D5E41DE2
S11314800720844303CC083C083410AA03C2083A5A
S113149005E02068241DC11710AA03C2083A684653
S11314A0007B00900A23012210A912A8FFF738FE3E
S11314B0060012A88019089010A803C8002906DCA9
S11314C001DB002803D22D200790761C0FE0029840
S11314D0800703D52B200790761C08E0029840076C
S11314E003D520200790761C01E0002007900020FF
S11314F009900298000716D50798002807D0012301
S113150007980200D2B204A91D981E9FB847012073
S113151009900598831B302204A91D981E9FB84783
S11315200598060016E00298C00713D40598831B9B
S1131530202204A91D981E9FB8470798002807D0A9
S1131540012307980200D2B204A91D981E9FB84730
S113155001200990099800280AD10798002807D08B
S1131560012307980200D2B204A91D981E9FB84710
S11315700198582803D00198782800D08CE001986D
S1131580782802D10020694608730298C00509D55D
S1131590E41D0720844303CC083C08340CAA03C28E
S11315A0083A05E02068241D00210CAA03C2083A69
S11315B06846007B0090102300220CA912A8FFF7B4
S11315C0AFFD060012A88019089000200990029827
S11315D0000721D50298C00614D50123302204A99E
S11315E01D981E9FB8476846007B002801D05822EA
S11315F000E078220123D2B204A91D981E9FB847A7
S1131600012009900598831B302204A91D981E9F70
S1131610B8470598060025E00298C00722D402982E
S1131620C00600D5B61C0598831B202204A91D986A
S11316301E9FB8470298C00614D50123302204A97E
S11316401D981E9FB8476846007B002801D0582289
S113165000E078220123D2B204A91D981E9FB84746
S1131660012009900298C00616D50998002813D1C4
S11316700123302204A91D981E9FB8476846007BA9
S1131680002801D0582200E078220123D2B204A914
S11316901D981E9FB847B61C01986F2808D0019862
S11316A0622805D00198702802D0019875284FD17E
S11316B00298C00509D5E41D0720844303CC083CE7
S11316C008340CAA03C2083A05E02068241D00214E
S11316D00CAA03C2083A01986F2803D1082069466E
S11316E0487310E00198622803D1022069464873C8
S11316F009E00198702803D110206946487302E07C
S11317000A20694648736846007B00906846437B1C
S113171000220CA912A8FFF703FD060012A88019E5
S113172008900298000709D50598831B302204A964
S11317301D981E9FB8470598060009E00298C00747
S113174006D40598831B202204A91D981E9FB84720
S1131750089800280ED00898007800280AD00123A1
S11317600898027804A91D981E9FB8470898401E3F
S11317700890F0E70298C00770D50598831B2022D3
S113178004A91D981E9FB84768E0019863280CD1EE
S11317902068241DC0B20E9001230E980200D2B21C
S11317A004A91D981E9FB84758E0019873284DD18D
S11317B02068241D0690069800284FD06846807B38
S11317C0002802D00A98060003E0069800F07DF98C
S11317D006000298C00706D40598831B202204A99A
S11317E01D981E9FB8476846807B002814D0069831
S11317F0007800280DD0012E0BDB01230698027817
S113180004A91D981E9FB8470698401C0690761E92
S1131810EDE70A98861B0EE00698007800280AD0A7
S113182001230698027804A91D981E9FB8470698BC
S1131830401C0690F0E70298C0070FD50598831B5B
S1131840202204A91D981E9FB84707E00123019890
S11318500200D2B204A91D981E9FB8476D1C22E550
S113186004981FB0F0BDFEE700B5C9B2002904D04A
S1131870C27808231343C37003E0C278F7231340EC
S1131880C37000BD00B5C9B2002904D0C2780423D6
S11318901343C37003E0C278FB231340C37000BD3D
S11318A000B5C9B2002905D0826880231B03134305
S11318B0836003E08268494B1340836000BD00B538
S11318C0C9B2002905D082688023DB0213438360F8
S11318D003E08268424B1340836000BDF0B585B0DD
S11318E004000E0015001F00002C06D1FF223D4904
S11318F03D48FFF7D3FA00BF00BF20793B49087188
S113190020683A49086039480079012803D0022840
S113191016D0062829D1684600F09CF900962A00C2
S113192069463248006800F0FBF801212F4800683E
S1131930FFF79AFF01212D480068FFF7A3FF14E089
S113194002A800F00BFB02962A0002A927480068AF
S113195000F01BFA012125480068FFF7A1FF0121CF
S113196022480068FFF7ABFFFFE705B0F0BDF8B50C
S113197006000D00170000241C480079012803D03C
S1131980022813D0062823D1FFB2002F06D02A0044
S113199031001648006800F089F906E02A00310099
S11319A01248006800F092F9040013E0FFB2002F1F
S11319B006D02A0031000D48006800F01FFB06E045
S11319C02A0031000948006800F038FB040001E0F7
S11319D0012004002000F2BD00000000FFFFF7FF1B
S11319E0FFFFFBFF60330000E83900006CF0FF1FCD
S11319F030B4DC0F03D05B42524200D25B1E0D10A8
S1131A006C4013D0F446002502D349424042A94118
S1131A1000F00DF8E40703D35B425242AB41244289
S1131A2002D549424042A94130BC604730BC124211
S1131A3024D0994228D970B500251B4202D00C004D
S1131A40002109E00024012649186441944200D38E
S1131A50A41A7641F8D33100012601E0764109D277
S1131A60001864416D41A41A9D41F7D2A4185D4148
S1131A70B619F5D3300022002B0070BD1B42D8D11B
S1131A8008B500F04BFB08BD01D19042D3D202004F
S1131A900B0000210020704730B4434351435D18CC
S1131AA0010C0C00130C5C432D1980B2434392B219
S1131AB051430024C918644124040B04090C091976
S1131AC05043C018694130BC7047010000E0491C14
S1131AD00A78002AFBD1081A7047FEE7010C6A4A0B
S1131AE089180A680123834013430B60704770B55B
S1131AF0060003250024AC4207D264480421614354
S1131B004058B04201D0641CF5E7AC4206D3A12290
S1131B105F496048FFF7C2F900BF00BF200070BDF5
S1131B20F4B584B005000C00002C06D1CC22584931
S1131B305848FFF7B3F900BF00BF2068002806D15A
S1131B40CD2253495348FFF7A9F900BF00BF00272E
S1131B5000206946887000200190049821681022B2
S1131B605143FFF7C3F90600B6B2002E01D101209C
S1131B700600002002900498022148432168FFF7E0
S1131B80B5F9B6B220217143401A69460880049819
S1131B9002214843B6B2202171436A46128889184B
S1131BA0FFF7A4F907002068B84203D22068381A66
S1131BB0019002E02068C01B019020686421FFF7B7
S1131BC095F9032148430199884201D23E483FE0F8
S1131BD02800FFF78CFF5549042250430858FFF7AB
S1131BE07DFFE878F3210140E9702878E021014085
S1131BF0300080B2000A0843287030006870A97A67
S1131C00E020084069460988C906C90E0143A97243
S1131C10A978E82008406179890004221140014331
S1131C202079002804D00A002079102101431143AF
S1131C30A970EA78A079002802D010000822024393
S1131C40E079002802D0100004220243EA70002048
S1131C5005B0F0BD10B50400002C07D1FF226C3292
S1131C600B491148FFF71AF900BF00BFE1204002F9
S1131C70206000202071002060710020A0710020ED
S1131C80E07110BD000000000070044058390000ED
S1131C9018340000183A000001000A79D2B24879D9
S1131CA00002104370470000183A000000B513000A
S1131CB05A1E002B06D003791B06FCD50B78C37182
S1131CC0491CF4E700BD0000F5030000F8B5070067
S1131CD00C001500002C06D1174A15491548FFF7CA
S1131CE0DDF800BF00BF2800451E00281BD038794E
S1131CF0800614D43800FFF7CFFF0600300701D563
S1131D000E4811E0700701D50D480DE0B00701D56C
S1131D100C4809E0F007EAD5FD20800004E0F879DA
S1131D202070641CDFE70020F2BD0000643900006D
S1131D3018340000183A00004F020000F1030000BC
S1131D40F2030000F3030000010C814A89180A68B9
S1131D500123834013430B60704738B5050000240A
S1131D60022C07D27B48042161434058A84201D089
S1131D70641CF5E7022C06D38E2277498748FFF7C7
S1131D808DF800BF00BF200032BDF4B588B0070055
S1131D900E00002E06D1E4226F498048FFF77EF83A
S1131DA000BF00BF3068002806D1E5226A497B489D
S1131DB0FFF774F800BF00BF306804900020039060
S1131DC00020694688800425212D3BD2089831687B
S1131DD06943FFF78BF80400A4B2002C01D1012061
S1131DE004000898A4B229006143FFF77FF8059026
S1131DF005983168401A0290316800910898A4B29D
S1131E002100491C6943FFF771F80099081A0299E7
S1131E1088420CD2316800910898A4B22100491C70
S1131E206943FFF763F80099081A0290641C049848
S1131E300299884204D302980490039568468480EA
S1131E406D1CC1E730686421FFF750F80321484353
S1131E500499884201D2524877E03800FFF77DFFA9
S1131E60009050480099042251434058FFF76CFFFA
S1131E70B8684D490140B96038680399042906D30C
S1131E800399082903D2010080208002084359499C
S1131E9001400398401E0206F82040051040084304
S1131EA0400B400369468988C904C90C0143396061
S1131EB039685F4A0A403A60B9684F4B0B4032793F
S1131EC09446717A0A02E021C90011406246114326
S1131ED08C46317A8A0004210A4061460A431A4337
S1131EE03179002902D0100010220243BA60386808
S1131EF050490140F079400380239B011840084376
S1131F0038604D4880231B060343C0200002184359
S1131F10B379002B03D080218905014301E04449B2
S1131F200140786808437860BA68B07A002803D022
S1131F301000802212030243F07A002803D010001C
S1131F408022D2020243BA60002009B0F0BD000032
S1131F5000700440003A0000BC33000010B50400D7
S1131F60002C07D1F122520056495748FEF796FF3C
S1131F7000BF00BFE120400220600020207100204B
S1131F8060710020A0710020E07100202072002008
S1131F9060720020A0720020E07210BDF8390000C9
S1131FA021050000083A0000FFFFF3FF0100486824
S1131FB0704770B505000C00686840004008802137
S1131FC0090621400143414808401B49214001437F
S1131FD03F480840C0263602264006436E6028006B
S1131FE0FFF7E4FF2040002801D03B4800E0002038
S1131FF070BD0000FFFFFFE0E8F8FFFF70B50600CA
S11320000C001500002C06D1324A2E493348FEF745
S113201045FF00BF00BF2800451E002806D0706899
S11320200002FCD52078F060641CF4E770BD000069
S1132030FFFFFFDFFFDFFFFF00001F40F8B50700D1
S11320400C001500002C07D1AE2292001D491E4839
S1132050FEF724FF00BF00BF2800451E00282FD034
S11320607868800228D43800FFF7A0FF0600300308
S113207006D5802109033800FFF79BFF184820E0AC
S1132080700306D58021C9023800FFF792FF154876
S113209017E0B00306D5802189023800FFF789FFD5
S11320A011480EE0F003DBD5802149023800FFF728
S11320B080FFA420C00004E0F8682070641CCBE713
S11320C00020F2BDBC330000F8390000FFFFE0BF80
S11320D0FF3FFFFFA90200001A050000F8390000C5
S11320E01D0500001E0500001F05000080B50748FF
S11320F001680748074A1268904701BD80B5034844
S113210041680548034A1268904701BD74F0FF1FF7
S1132110004005407CF0FF1F005005407047FEE77B
S1132120010CA14A89180A680123834013430B60F8
S1132130704710B504002000FEF7F7FB10BD9B4864
S1132140006870479A4800687047F8B504000F00AB
S113215015003878202802D0402802D003E0012658
S113216002E0202600E00226002D01D03000A8471E
S1132170F1BDF2B5040017001D003800002805D099
S11321808C49401A06D0801E02D005E0012604E0E6
S1132190102602E0402600E00226002D01D0300087
S11321A0A847F1BD00B50200087BC00702D48A60CD
S11321B001200873002000BD0100002008730020E6
S11321C07047F1B586B00F0016001D000C9C6068C6
S11321D0007F002802D00120C0433FE0A368B24A38
S11321E0616820680068FEF7B7FB069869460871C5
S11321F00020694648710020029000206946087357
S1132200049705960020009020680068C078800636
S113221003D50098022101430091EDB2002D03D0B3
S113222000980421014300916A46616820680068AF
S1132230FEF7B9FB01000800002805D0BB4A801A4C
S113224004D0001F05D007E0002007E00120C043B0
S113225004E00220C04301E00020C04307B0F0BD09
S1132260F1B586B00F0016001D000C9C6068007F5D
S1132270002802D00120C0433FE0A3688A4A616875
S113228020680068FEF768FB06986946087101201B
S1132290694648710020029000206946087304973B
S11322A005960020009020680068C078800603D559
S11322B00098022101430091EDB2002D03D0009853
S11322C00421014300916A46616820680068FEF7B2
S11322D06AFB01000800002805D0944A801A04D043
S11322E0001F05D007E0002007E00120C04304E000
S11322F00220C04301E00020C04307B0F0BD70B528
S113230006000D001400A368BF4A616820680068D5
S1132310FEF712FC2022616820680068FEF73AFC90
S11323200100606886606068C56000206268506172
S11323300800002803D07D4A904202D004E0002027
S113234004E00120C04301E00020C04370BD70B52B
S113235006000D0014008020216809684871A368F4
S1132360A94A616820680068FEF7E6FB20226168DC
S113237020680068FEF70EFC0100606886606068F3
S1132380C5600020626850610800002803D0674AD5
S1132390904202D004E0002004E00120C04301E0A8
S11323A00020C04370BD000000700440843A000067
S11323B0883A00004F04000000B5010048684069F5
S11323C0002802D04868406905E0486818304A6827
S11323D01432801A801000BDF8B507000E001400F6
S11323E0012F06D05CD3032F25D009D3042F25D089
S11323F056E030004000216809680870002051E070
S1132400012E04D009D3032E05D002D305E0994D43
S113241006E0994D04E0994D02E00320C04341E0F9
S11324202068406880470200290020680068FEF7A1
S1132430CEF9002036E00320C04333E02068006872
S1132440007800280ED1616820680068FEF7D7FA8A
S1132450002061688861002061680861002061686B
S113246048611BE020680068C078400716D42068E3
S113247000688078082101432068006881706068E2
S113248000780028FBD1616820680068FEF7B2FB81
S113249000206168886000206168C860002001E055
S11324A00320C043F2BD00007321000038B50500CD
S11324B00C00EDB2002D03D0022D14D010D331E066
S11324C0207B80070AD5220000210420FFF784FF27
S11324D020680068FEF748F901202073002023E0FB
S11324E00320C04320E0207B002802D10020C04309
S11324F01AE0207B800701D5002015E020680068E1
S1132500FDF7D5FF5E49042250430858FFF708FE43
S11325108020216809688870207B0221014321738F
S1132520002001E00320C04332BD00004C04000041
S113253038B5040053480068009020680068FFF72D
S1132540F8FD010020680068007800280DD160685B
S1132550426900980423984304230B4003430093E7
S1132560009802230343009312E06068C268009855
S1132570042398438B081D00ED07ED0F01236B40E6
S1132580DBB29B000343009300980223984300901E
S1132590002A04D0009801230343009303E0009829
S11325A001239843009000981023984310230B4074
S11325B003430093009832BD10B5040000F095F871
S11325C031492000FFF7EEFD10BD80B500F09CF806
S11325D02D48FFF7F1FD02BD10B504002A49200083
S11325E0C0B2FFF763FF10BDF8B507000E00150079
S11325F01C00254800902300DBB22A00310038007B
S1132600FFF7DFFDF2BD00004B210000F8B5070025
S11326100E0015001C001C4800902300DBB22A00A9
S113262031003800FFF71CFEF2BD38B505000C0080
S1132630154A21002800FFF762FE32BD38B50500B7
S11326400C00114A21002800FFF781FE32BD80B53D
S11326500D48FFF7B1FE02BD38B505000C000A4A6B
S113266021002800FFF7B8FE32BD80B50648FFF709
S11326705FFF02BDA0860100801A060040420F00E1
S1132680D8390000803A000000F0FF1F010C264AF0
S113269089180A680123834013430B60704730B4E0
S11326A004234B43C358214C1C40D2B21302E025EF
S11326B0ED001D40254304234B43C55030BC7047F7
S11326C080B51B48FFF7E2FF022201211948FFF7FA
S11326D0E6FF022202211748FFF7E1FF16480068CF
S11326E0072188431449086001BD80B51348FFF7EA
S11326F0CDFF022200211248FFF7D1FF022201215F
S11327000F48FFF7CCFF01BD80B50C48FFF7BEFFB3
S1132710002200210A48FFF7C2FF002201210848D5
S1132720FFF7BDFF01BD000000700440FFF8FFFF8C
S11327300900381000900440108004400A0038104A
S113274000A004406C490968574A0A408104C02328
S11327501B030B40134368490B60704700B55B488B
S11327600078800707D45A480078C0B280088007F0
S1132770800F01280AD1614878490978C9B20A0052
S1132780D207D20F04214A43805800E0002000BD44
S113279080B55B48007800060DD5724800680028B3
S11327A006D18D2257496E48FEF778FB00BF00BF63
S11327B06C48006800E0002002BD80B54E48006807
S11327C0800C8007800F002804D002280DD0032835
S11327D019D01BE0FFF7DCFF80210902884202D1F7
S11327E08020000200E0002011E05F48006800281B
S11327F006D1A12243495A48FEF750FB00BF00BF4F
S11328005948006803E0FA20800000E0002002BD7F
S113281010B50400E4B22000002801280FD9801E5E
S113282016D0801E14D0C01E23D0401E24D0001FFA
S113283025D0401F012825D9801E26D028E000F08D
S113284063F84A490968090F491CFEF74FFB20E069
S113285000F05AF845490968090F491CFEF746FB80
S113286042490968090C4907490F491CFEF73EFB18
S11328700FE0FFF7A2FF0CE0FFF78AFF09E000F08A
S113288015F806E000F026F803E0FA20800000E0E6
S1132890002010BD10B50400606834490860207839
S11328A0FFF750FF10BD0000FFFFF3FF38B562488B
S11328B00078C0B240084407640F604800784507B8
S11328C06D0FFFF74BFF6119C84032BD0040064051
S11328D00640064000B559480078000607D4584819
S11328E00078C0B280088007800F002801D15548C5
S11328F000E0002000BD000000700440A03900008A
S113290000500640A832000080B54D480078C0B29F
S113291080088007800F002803D002280DD002D33E
S11329201AE0484819E0FFF719FF43490978C9B28A
S113293049084907490FC8400FE00A4800680028C1
S113294007D19B22520040490548FEF7A7FA00BF71
S113295000BF0448006800E0002002BD01400640BA
S1132960983900001CF0FF1F20F0FF1F4480044032
S113297010B50400002C07D1FF22623232493448DA
S1132980FEF78CFA00BF00BF2D480078C0B2800863
S11329908007800F012819D12078012816D12B48EF
S11329A00078C0B20100C907C90FA07881420DD0D8
S11329B0284800788006800E264908702048007850
S11329C0C0B280088007800F0028F7D1E07840006B
S11329D00E210140184801706079C001217949072E
S11329E0490F01431548017018480078FE21014041
S11329F0A0780200D207D20F0A431448027020784C
S1132A008001617801431348017010480078400741
S1132A1006D52078022803D1094800788007FBD521
S1132A20207807490978C9B289088907890F88423B
S1132A30F6D1002010BD00000840064018400640B2
S1132A4006400640006CDC02A8320000014006404B
S1132A50983900000040064000B5012801D06949BA
S1132A6008600121684A117000BDFEB506000C0023
S1132A706846002101806846007A6946087009A802
S1132A800078002800D17EE000205F49227A885433
S1132A9001205C49227A04235A43885001230122ED
S1132AA06946684680887569A8470500002D38D1B5
S1132AB05548217A405C002808D12068002803D0BA
S1132AC0606821688847F3E700BFF1E74D48217A41
S1132AD0042251434058022803D100210420B26A41
S1132AE090474848217A042251434058012802D093
S1132AF00020C04384E000204349227A8854012006
S1132B004049227A04235A4388500023012268460C
S1132B10411C68468088B769B8470700002F30D148
S1132B2001E028006CE03848217A405C002808D194
S1132B302068002803D0606821688847F3E700BF55
S1132B40F1E73048217A042251434058022803D146
S1132B5000210420B26A90472A48217A0422514372
S1132B604058012802D00020C04349E0684640781C
S1132B7009A90978884308A909780143684641707E
S1132B8005E038003CE008A8007869464870002059
S1132B901D49227A885401201A49227A04235A436F
S1132BA088500AA8037802226946684680887569B5
S1132BB0A8470500002D22D11348217A405C002843
S1132BC008D12068002803D0606821688847F3E7AB
S1132BD000BFF1E70B48217A0422514340580228F0
S1132BE003D100210420B26A90470648217A0422C6
S1132BF051434058012802D00020C043050028005A
S1132C00FEBD000010F0FF1F94F5FF1FFEB5060087
S1132C100C0000203949227A885401203849227A4C
S1132C2004235A4388500123012202A9684680885C
S1132C307569A8470700002F38D13048217A405CD5
S1132C40002808D12068002803D0606821688847DC
S1132C50F3E700BFF1E72A48217A042251434058A0
S1132C60022803D100210420B26A90472448217A23
S1132C70042251434058012802D00020C0433BE0C5
S1132C8000201E49227A885401201D49227A0423F7
S1132C905A438850002308A8027809996846808816
S1132CA0B569A8470500002D25D101E0380023E0CF
S1132CB01248217A405C002808D12068002803D0FB
S1132CC0606821688847F3E700BFF1E70C48217A80
S1132CD0042251434058022803D100210420B26A3F
S1132CE090470748217A042251434058012802D0D2
S1132CF00020C04305002800FEBD000094F5FF1F1E
S1132D0010F0FF1F70B586B02C4CFFF7D9FC00F013
S1132D1071F800F095F82A48FEF781F92948A1686E
S1132D2088470600002E05D02748FEF778F90020D2
S1132D30C04341E00220216988470500002D05D0E9
S1132D402248FEF76CF90020C04335E0022102203E
S1132D50A26A90470600002E05D01D48FEF75FF9D1
S1132D600020C04328E0C4200090602300221349BF
S1132D7001A800F07BF80500002D05D01548FEF7EA
S1132D804EF90020C04317E01348FEF748F9134AF0
S1132D90134901A800F09CF801A800F09CF8060073
S1132DA0002E05D00F48FEF73AF90020C04303E097
S1132DB00D48FEF734F9002006B070BD5C36000003
S1132DC0D4350000592A00004C380000E0370000D8
S1132DD018370000043800004037000000E00740C6
S1132DE0353900008C38000068370000084809496C
S1132DF00860704780B5FFF7F9FF0748FFF7B8FD93
S1132E000648FFF747FD06480649086001BD000073
S1132E100000031044800440883900009039000009
S1132E20006CDC0218F0FF1F0D4909680D4A0A40C6
S1132E308106C0231B050B40134309490B607047EF
S1132E4010B50120FFF7F0FFFFF744FD0400230055
S1132E500222E12149020448FEF7CAF810BD00002D
S1132E6004800440FFFFFFF300400540F4B584B044
S1132E7004000D001E000A9F002C01D0002D01D17A
S1132E80012023E06846007C20720020606000205E
S1132E90206002A80190012000900C23320092B21D
S1132EA021002800FFF7B2FE0100002905D13800F7
S1132EB06A46127AC0B2904203D0002020740320E4
S1132EC004E0E560668201202074002005B0F0BDB6
S1132ED042600160704710B584B00400002C01D139
S1132EE0012018E0207C012801D0032013E00020F9
S1132EF0029004200190042000902623628A21007D
S1132F00E068FFF7B2FD0100002901D0042002E0CF
S1132F1000202074002004B010BD000070B505002E
S1132F200C001600042C07D3FF22DE320B490C4898
S1132F30FDF7B4FF00BF00BF002E0ED01020604389
S1132F402818842149004058802149040143102055
S1132F506043281884225200815070BD74340000EC
S1132F60B039000010B50400002C07D1FF2228322C
S1132F7016491748FDF792FF00BF00BF8022520494
S1132F8021792068FFF7CAFFA068002803D0E16810
S1132F902000A268904710BD80B50B480068FFF779
S1132FA0E1FF01BD80B508484068FFF7DBFF01BDC4
S1132FB080B505488068FFF7D5FF01BD80B502489C
S1132FC0C068FFF7CFFF01BD24F0FF1FCC34000021
S1132FD0B039000038B504000D00E078C00608D50B
S1132FE01C4804216943415820001B4A1268904739
S1132FF007E018480421694341582000144A126824
S1133000904731BD80B513480068002806D1134AA3
S11330100E490D48FDF742FF00BF00BF00211048D4
S1133020FFF7D8FF01BD80B50A484068002806D1E3
S11330300C4A06490448FDF731FF00BF00BF0121D7
S11330400948FFF7C7FF01BD103A00007C350000B6
S11330508CF0FF1F80F0FF1F88F0FF1F2404000086
S1133060006007402C0400000070074014001600A4
S113307018001A001C001E00220028001C0020005A
S1133080240028002C0030003800440030003800B0
S11330904000480050005800680080005000600064
S11330A0700080009000A000C000F000A000C000EC
S11330B0E0000001200140018001E00140018001A5
S11330C0C0010002400280020003C003800200032A
S11330D08003000480040005000680070005000644
S11330E0000700080009000A000C000F10B50400D6
S11330F0200000F053F810BD38B505000C00210085
S1133100280000F059F831BDF1B50F000098FFF721
S1133110EDFF06000024E4B2202C23DA3000E04066
S1133120C0071DD51048FFB28021490079434018DB
S1133130E4B20821614340184568280000280FD0F4
S11331400948FFB28021490079434018E4B20821BC
S113315061434058A8470121A1400098FFF7CCFFE4
S1133160641CD8E7F1BD000090F0FF1F38B50500DE
S11331700024052C07D21748042161434058A84273
S113318001D0641CF5E7052C06D35E2212491348CE
S1133190FDF784FE00BF00BF200032BD10B504005F
S11331A02000FFF7E3FF01000D48C9B204224A439F
S11331B08058A022805810BD38B505000C002800A6
S11331C0FFF7D4FF0649C0B2042242438958A02223
S11331D08C5031BD2039000004330000B8390000A0
S11331E00C390000443A5C576F726B73706163650D
S11331F05C4275696C645F54656D705C53444B5FED
S1133200322E342E305F4652444D2D4B4C32375AB9
S11332102D41474D5030335C646576696365735C5A
S11332204D4B4C32375A3634345C7574696C69745E
S11332306965735C66736C5F64656275675F636F11
S11332406E736F6C652E6300443A5C576F726B73D8
S1133250706163655C4275696C645F54656D705C34
S113326053444B5F322E342E305F4652444D2D4B27
S11332704C32375A2D41474D5030335C6465766982
S11332806365735C4D4B4C32375A3634345C757419
S1133290696C69746965735C6C6F675C66736C5F99
S11332A06C6F672E63000000443A5C576F726B7357
S11332B0706163655C4275696C645F54656D705CD4
S11332C053444B5F322E342E305F4652444D2D4BC7
S11332D04C32375A2D41474D5030335C6465766922
S11332E06365735C4D4B4C32375A3634345C6472CC
S11332F069766572735C66736C5F636C6F636B2E67
S113330063000000443A5C576F726B7370616365CD
S11333105C4275696C645F54656D705C53444B5FCB
S1133320322E342E305F4652444D2D4B4C32375A98
S11333302D41474D5030335C646576696365735C39
S11333404D4B4C32375A3634345C6472697665724C
S1133350735C66736C5F6770696F2E6300000000B6
S1133360443A5C576F726B73706163655C42756954
S11333706C645F54656D705C53444B5F322E342E25
S1133380305F4652444D2D4B4C32375A2D41474DF8
S11333905030335C646576696365735C4D4B4C32C5
S11333A0375A3634345C7574696C69746965735C56
S11333B0696F5C66736C5F696F2E6300443A5C5797
S11333C06F726B73706163655C4275696C645F54A2
S11333D0656D705C53444B5F322E342E305F465221
S11333E0444D2D4B4C32375A2D41474D5030335CB0
S11333F0646576696365735C4D4B4C32375A363479
S1133400345C647269766572735C66736C5F6C704D
S1133410756172742E630000443A5C576F726B736B
S1133420706163655C4275696C645F54656D705C62
S113343053444B5F322E342E305F4652444D2D4B55
S11334404C32375A2D41474D5030335C64657669B0
S11334506365735C4D4B4C32375A3634345C64725A
S113346069766572735C66736C5F756172742E63E2
S113347000000000443A5C576F726B7370616365BF
S11334805C4275696C645F54656D705C53444B5F5A
S1133490322E342E305F4652444D2D4B4C32375A27
S11334A02D41474D5030335C646576696365735CC8
S11334B04D4B4C32375A3634345C647269766572DB
S11334C0735C66736C5F646D612E6800443A5C578C
S11334D06F726B73706163655C4275696C645F5491
S11334E0656D705C53444B5F322E342E305F465210
S11334F0444D2D4B4C32375A2D41474D5030335C9F
S1133500646576696365735C4D4B4C32375A363467
S1133510345C647269766572735C66736C5F646D47
S1133520612E6300443A5C576F726B73706163651C
S11335305C4275696C645F54656D705C53444B5FA9
S1133540322E342E305F4652444D2D4B4C32375A76
S11335502D41474D5030335C646576696365735C17
S11335604D4B4C32375A3634345C6472697665722A
S1133570735C66736C5F6932632E6300443A5C5714
S11335806F726B73706163655C4275696C645F54E0
S1133590656D705C53444B5F322E342E305F46525F
S11335A0444D2D4B4C32375A2D41474D5030335CEE
S11335B0646576696365735C4D4B4C32375A3634B7
S11335C0345C647269766572735C66736C5F737085
S11335D0692E63000D0A20495353444B204D504C2F
S11335E0333131352073656E736F7220647269767E
S11335F06572206578616D706C652064656D6F6EB1
S11336007374726174696F6E207769746820706F67
S11336106C6C206D6F64650D0A00000070B40100CD
S11336200123002413E00A68091D1A4202D04D4602
S11336306D1E52191460121D001F0428FAD21500C1
S1133640860701D51480AD1C184000D02C70086882
S1133650091D0028E7D1080070BC70473F21000015
S113366045210000B9250000CB250000D925000024
S1133670E92500000D2600002B2600003D26000051
S11336804F260000592600006B26000030B40122AA
S11336900168001D00290FD00368C318446808306E
S11336A0144202D04D466D1E64191D6825601B1D11
S11336B0241D091FECD0F8E730BC704780B50848DA
S11336C00078000705D5064800780821014304481E
S11336D0017000200349086000F006F801BD0000F5
S11336E002D0074000810440704700004153534515
S11336F05254204552524F52202220257320223A00
S11337002066696C652022257322204C696E652031
S113371022256422200A00000D0A20493243204356
S11337206F6E74726F6C204D6F6465207365747472
S1133730696E67204661696C65640D0A00000000CB
S11337400D0A205375636365737366756C6C792019
S1133750496E6974696C69617A65642053656E7336
S11337606F720D0A000000000D0A20537563636533
S1133770737366756C6C79205265736574204D5053
S11337804C333131352053656E736F722E0D0A0040
S113379072B60548054901600A6882F3088804483E
S11337A0804762B60348004708ED00E000000000CF
S11337B0BD3600007139000010B50749794418314D
S11337C0064C7C44163404E0081D0A6889188847AE
S11337D00100A142F8D110BD5000000070000000AB
S11337E00D0A2049324320506F776572204D6F6473
S11337F0652073657474696E67204661696C6564DD
S11338000D0A00000D0A2053656E736F7220496E15
S1133810697469616C697A6174696F6E2046616963
S11338206C65640D0A000000F5FDFFFF7C050000D7
S11338301CF0FF1F0000000055FEFFFF1C000000ED
S11338406800000000F0FF1F000000000D0A20497E
S1133850324320496E697469616C697A6174696F75
S11338606E204661696C65640D0A000080B5002114
S11338700448FFF749FC01BD80B504210248FFF765
S113388043FC01BD00F00F4000F10F400D0A4D5004
S11338904C33313135207265736574206661696C0F
S11338A065642E2E2E0D0A00E039000044F0FF1F3F
S11338B00000000000000000010000000000000003
S11338C000127A0000F00BF8002801D0FFF774FF13
S11338D0002000BF00BFFFF715FA00F002F8012036
S11338E0704780B500F002F801BD00000746384675
S11338F000F002F8FBE7000080B500BF00BF024AF9
S113390011001820ABBEFBE7260002000090044023
S113391000A0044000B0044000C0044000D00440B3
S113392000F00F4040F00F4080F00F40C0F00F4017
S113393000F10F40010048789F22024040231343C6
S11339404B7000207047000002480068401C014989
S11339500860704790F5FF1F0000000000000000A1
S113396000C0064000000000000000000C003410FD
S113397000BF00BF00BF00BFFFF7A4FF80B5002059
S1133980FEF746FF02BD0000000201000001000036
S11339900000000000000100746573740000000062
S11339A080841E0000127A007465737400000000A5
S11339B07465737400000000746573740000000083
S11339C074657374000000000060064000700640D7
S11339D006003410070034100600341007003410B9
S11339E0006006407D3900007465737400000000B7
S11339F07465737400000000746573740000000043
S1133A0000400540005005401400381015003810DF
S1133A107465737400000000746573740000000022
S1133A2000480047992F000000480047A52F0000D8
S1133A3000480047B12F000000480047BD2F000098
S1133A40004800475B0E000000480047690E000074
S1133A5000480047053000000048004727300000B8
S1133A6000480047ED20000000480047FD2000000A
S1133A7000480047793A000000480047793A0000BE
S10F3A800000000003020002000000002F
S903397152
